{
  "contractName": "Auction",
  "abi": [
    {
      "anonymous": false,
      "inputs": [
        {
          "indexed": false,
          "internalType": "uint256",
          "name": "shipmentId",
          "type": "uint256"
        }
      ],
      "name": "AuctionApprovedAndCargoAssignedToAuctionSC",
      "type": "event"
    },
    {
      "anonymous": false,
      "inputs": [
        {
          "indexed": false,
          "internalType": "uint256",
          "name": "shipmentId",
          "type": "uint256"
        }
      ],
      "name": "AuctionEnded",
      "type": "event"
    },
    {
      "anonymous": false,
      "inputs": [
        {
          "indexed": false,
          "internalType": "uint256",
          "name": "shipmentId",
          "type": "uint256"
        }
      ],
      "name": "AuctionStarted",
      "type": "event"
    },
    {
      "anonymous": false,
      "inputs": [
        {
          "indexed": false,
          "internalType": "uint256",
          "name": "shipmentId",
          "type": "uint256"
        },
        {
          "indexed": false,
          "internalType": "address",
          "name": "bidder",
          "type": "address"
        },
        {
          "indexed": false,
          "internalType": "uint256",
          "name": "amount",
          "type": "uint256"
        }
      ],
      "name": "Bid",
      "type": "event"
    },
    {
      "anonymous": false,
      "inputs": [
        {
          "indexed": false,
          "internalType": "uint256",
          "name": "shipmentId",
          "type": "uint256"
        }
      ],
      "name": "ClaimCargo",
      "type": "event"
    },
    {
      "anonymous": false,
      "inputs": [
        {
          "indexed": false,
          "internalType": "uint256",
          "name": "shipmentId",
          "type": "uint256"
        },
        {
          "indexed": false,
          "internalType": "address",
          "name": "owner",
          "type": "address"
        }
      ],
      "name": "ShipmentCreated",
      "type": "event"
    },
    {
      "inputs": [
        {
          "internalType": "uint256",
          "name": "",
          "type": "uint256"
        }
      ],
      "name": "auctions",
      "outputs": [
        {
          "internalType": "address",
          "name": "highestBidder",
          "type": "address"
        },
        {
          "internalType": "uint256",
          "name": "highestBid",
          "type": "uint256"
        },
        {
          "internalType": "bool",
          "name": "started",
          "type": "bool"
        },
        {
          "internalType": "bool",
          "name": "ended",
          "type": "bool"
        }
      ],
      "stateMutability": "view",
      "type": "function",
      "constant": true
    },
    {
      "inputs": [
        {
          "internalType": "uint256",
          "name": "",
          "type": "uint256"
        }
      ],
      "name": "shipments",
      "outputs": [
        {
          "internalType": "uint256",
          "name": "shipmentId",
          "type": "uint256"
        },
        {
          "internalType": "address",
          "name": "owner",
          "type": "address"
        },
        {
          "internalType": "address",
          "name": "portOfficer",
          "type": "address"
        },
        {
          "internalType": "uint256",
          "name": "price",
          "type": "uint256"
        },
        {
          "internalType": "enum Auction.ShipmentStatus",
          "name": "sState",
          "type": "uint8"
        }
      ],
      "stateMutability": "view",
      "type": "function",
      "constant": true
    },
    {
      "inputs": [
        {
          "internalType": "address",
          "name": "_owner",
          "type": "address"
        },
        {
          "internalType": "address",
          "name": "_portOfficer",
          "type": "address"
        },
        {
          "internalType": "uint256",
          "name": "_price",
          "type": "uint256"
        }
      ],
      "name": "createShipment",
      "outputs": [],
      "stateMutability": "nonpayable",
      "type": "function"
    },
    {
      "inputs": [
        {
          "internalType": "uint256",
          "name": "_shipmentId",
          "type": "uint256"
        },
        {
          "internalType": "address",
          "name": "_owner",
          "type": "address"
        }
      ],
      "name": "claimCargoRequest",
      "outputs": [],
      "stateMutability": "nonpayable",
      "type": "function"
    },
    {
      "inputs": [
        {
          "internalType": "uint256",
          "name": "_shipmentId",
          "type": "uint256"
        }
      ],
      "name": "auctionCargo",
      "outputs": [],
      "stateMutability": "nonpayable",
      "type": "function"
    },
    {
      "inputs": [
        {
          "internalType": "uint256",
          "name": "_shipmentId",
          "type": "uint256"
        }
      ],
      "name": "start",
      "outputs": [],
      "stateMutability": "nonpayable",
      "type": "function"
    },
    {
      "inputs": [
        {
          "internalType": "uint256",
          "name": "_shipmentId",
          "type": "uint256"
        },
        {
          "internalType": "uint256",
          "name": "amount",
          "type": "uint256"
        }
      ],
      "name": "bid",
      "outputs": [],
      "stateMutability": "nonpayable",
      "type": "function"
    },
    {
      "inputs": [
        {
          "internalType": "uint256",
          "name": "_shipmentId",
          "type": "uint256"
        }
      ],
      "name": "end",
      "outputs": [],
      "stateMutability": "nonpayable",
      "type": "function"
    }
  ],
  "bytecode": "0x608060405234801561001057600080fd5b50611490806100206000396000f3fe608060405234801561001057600080fd5b50600436106100885760003560e01c806374bca13f1161005b57806374bca13f1461012c57806395805dad14610148578063e212d4ed14610164578063f998aba51461018057610088565b80630ad245281461008d5780632ac08a93146100a9578063571a26a0146100dd578063598647f814610110575b600080fd5b6100a760048036038101906100a29190610dc2565b61019c565b005b6100c360048036038101906100be9190610dc2565b610434565b6040516100d4959493929190610eb6565b60405180910390f35b6100f760048036038101906100f29190610dc2565b6104b7565b6040516101079493929190610f24565b60405180910390f35b61012a60048036038101906101259190610f69565b610521565b005b61014660048036038101906101419190610fd5565b61066b565b005b610162600480360381019061015d9190610dc2565b610856565b005b61017e60048036038101906101799190610dc2565b6109ec565b005b61019a60048036038101906101959190611028565b610b92565b005b6001600082815260200190815260200160002060020160009054906101000a900473ffffffffffffffffffffffffffffffffffffffff1673ffffffffffffffffffffffffffffffffffffffff163373ffffffffffffffffffffffffffffffffffffffff1614610240576040517f08c379a0000000000000000000000000000000000000000000000000000000008152600401610237906110c5565b60405180910390fd5b60008082815260200190815260200160002060020160019054906101000a900460ff16156102a3576040517f08c379a000000000000000000000000000000000000000000000000000000000815260040161029a90611131565b60405180910390fd5b6001600082815260200190815260200160002060010160009054906101000a900473ffffffffffffffffffffffffffffffffffffffff1673ffffffffffffffffffffffffffffffffffffffff1660008083815260200190815260200160002060000160009054906101000a900473ffffffffffffffffffffffffffffffffffffffff1673ffffffffffffffffffffffffffffffffffffffff16146103cc5760008082815260200190815260200160002060000160009054906101000a900473ffffffffffffffffffffffffffffffffffffffff166001600083815260200190815260200160002060010160006101000a81548173ffffffffffffffffffffffffffffffffffffffff021916908373ffffffffffffffffffffffffffffffffffffffff1602179055505b600160008083815260200190815260200160002060020160016101000a81548160ff0219169083151502179055507f45806e512b1f4f10e33e8b3cb64d1d11d998d8c554a95e0841fc1c701278bd5d816040516104299190611151565b60405180910390a150565b60016020528060005260406000206000915090508060000154908060010160009054906101000a900473ffffffffffffffffffffffffffffffffffffffff16908060020160009054906101000a900473ffffffffffffffffffffffffffffffffffffffff16908060030154908060040160009054906101000a900460ff16905085565b60006020528060005260406000206000915090508060000160009054906101000a900473ffffffffffffffffffffffffffffffffffffffff16908060010154908060020160009054906101000a900460ff16908060020160019054906101000a900460ff16905084565b60008083815260200190815260200160002060020160009054906101000a900460ff1615610584576040517f08c379a000000000000000000000000000000000000000000000000000000000815260040161057b906111b8565b60405180910390fd5b60016000838152602001908152602001600020600301548111156106675780600160008481526020019081526020016000206003018190555080600080848152602001908152602001600020600101819055503360008084815260200190815260200160002060000160006101000a81548173ffffffffffffffffffffffffffffffffffffffff021916908373ffffffffffffffffffffffffffffffffffffffff1602179055507fdcd726e11f8b5e160f00290f0fe3a1abb547474e53a8e7a8f49a85e7b1ca319982338360405161065e939291906111d8565b60405180910390a15b5050565b6000429050610678610d1a565b8181600001818152505084816020019073ffffffffffffffffffffffffffffffffffffffff16908173ffffffffffffffffffffffffffffffffffffffff168152505083816040019073ffffffffffffffffffffffffffffffffffffffff16908173ffffffffffffffffffffffffffffffffffffffff16815250508281606001818152505060008160800190600281111561071557610714610e3f565b5b9081600281111561072957610728610e3f565b5b8152505080600160008481526020019081526020016000206000820151816000015560208201518160010160006101000a81548173ffffffffffffffffffffffffffffffffffffffff021916908373ffffffffffffffffffffffffffffffffffffffff16021790555060408201518160020160006101000a81548173ffffffffffffffffffffffffffffffffffffffff021916908373ffffffffffffffffffffffffffffffffffffffff1602179055506060820151816003015560808201518160040160006101000a81548160ff0219169083600281111561080e5761080d610e3f565b5b02179055509050507fe0f5cc97a7413c8504a43a017dde74af4822f66c59d6014c80548654138bc736828660405161084792919061120f565b60405180910390a15050505050565b6001600082815260200190815260200160002060020160009054906101000a900473ffffffffffffffffffffffffffffffffffffffff1673ffffffffffffffffffffffffffffffffffffffff163373ffffffffffffffffffffffffffffffffffffffff16146108fa576040517f08c379a00000000000000000000000000000000000000000000000000000000081526004016108f1906110c5565b60405180910390fd5b6001600281111561090e5761090d610e3f565b5b6001600083815260200190815260200160002060040160009054906101000a900460ff16600281111561094457610943610e3f565b5b14610984576040517f08c379a000000000000000000000000000000000000000000000000000000000815260040161097b906112aa565b60405180910390fd5b600160008083815260200190815260200160002060020160006101000a81548160ff0219169083151502179055507f1bb96dff6ab5005aff98cdc0cf176bb7d8e0423cb48e02217d35b042cec81e9f816040516109e19190611151565b60405180910390a150565b6001600082815260200190815260200160002060020160009054906101000a900473ffffffffffffffffffffffffffffffffffffffff1673ffffffffffffffffffffffffffffffffffffffff163373ffffffffffffffffffffffffffffffffffffffff1614610a90576040517f08c379a0000000000000000000000000000000000000000000000000000000008152600401610a8790611316565b60405180910390fd5b60006002811115610aa457610aa3610e3f565b5b6001600083815260200190815260200160002060040160009054906101000a900460ff166002811115610ada57610ad9610e3f565b5b14610b1a576040517f08c379a0000000000000000000000000000000000000000000000000000000008152600401610b11906113a8565b60405180910390fd5b600180600083815260200190815260200160002060040160006101000a81548160ff02191690836002811115610b5357610b52610e3f565b5b02179055507f6402fc36d2dfe0671ffb92610b3a7a4551d450944603ddb0ea122eebb0601e0a81604051610b879190611151565b60405180910390a150565b6001600083815260200190815260200160002060020160009054906101000a900473ffffffffffffffffffffffffffffffffffffffff1673ffffffffffffffffffffffffffffffffffffffff163373ffffffffffffffffffffffffffffffffffffffff1614610c36576040517f08c379a0000000000000000000000000000000000000000000000000000000008152600401610c2d9061143a565b60405180910390fd5b8073ffffffffffffffffffffffffffffffffffffffff166001600084815260200190815260200160002060010160009054906101000a900473ffffffffffffffffffffffffffffffffffffffff1673ffffffffffffffffffffffffffffffffffffffff1603610d165760026001600084815260200190815260200160002060040160006101000a81548160ff02191690836002811115610cd957610cd8610e3f565b5b02179055507fd82834740478293c24e1b97d8d84b48cd540f96ffb29f2dcd929c7207475275482604051610d0d9190611151565b60405180910390a15b5050565b6040518060a0016040528060008152602001600073ffffffffffffffffffffffffffffffffffffffff168152602001600073ffffffffffffffffffffffffffffffffffffffff1681526020016000815260200160006002811115610d8157610d80610e3f565b5b81525090565b600080fd5b6000819050919050565b610d9f81610d8c565b8114610daa57600080fd5b50565b600081359050610dbc81610d96565b92915050565b600060208284031215610dd857610dd7610d87565b5b6000610de684828501610dad565b91505092915050565b610df881610d8c565b82525050565b600073ffffffffffffffffffffffffffffffffffffffff82169050919050565b6000610e2982610dfe565b9050919050565b610e3981610e1e565b82525050565b7f4e487b7100000000000000000000000000000000000000000000000000000000600052602160045260246000fd5b60038110610e7f57610e7e610e3f565b5b50565b6000819050610e9082610e6e565b919050565b6000610ea082610e82565b9050919050565b610eb081610e95565b82525050565b600060a082019050610ecb6000830188610def565b610ed86020830187610e30565b610ee56040830186610e30565b610ef26060830185610def565b610eff6080830184610ea7565b9695505050505050565b60008115159050919050565b610f1e81610f09565b82525050565b6000608082019050610f396000830187610e30565b610f466020830186610def565b610f536040830185610f15565b610f606060830184610f15565b95945050505050565b60008060408385031215610f8057610f7f610d87565b5b6000610f8e85828601610dad565b9250506020610f9f85828601610dad565b9150509250929050565b610fb281610e1e565b8114610fbd57600080fd5b50565b600081359050610fcf81610fa9565b92915050565b600080600060608486031215610fee57610fed610d87565b5b6000610ffc86828701610fc0565b935050602061100d86828701610fc0565b925050604061101e86828701610dad565b9150509250925092565b6000806040838503121561103f5761103e610d87565b5b600061104d85828601610dad565b925050602061105e85828601610fc0565b9150509250929050565b600082825260208201905092915050565b7f4f6e6c79206167656e74732063616e20737461727420616e2061756374696f6e600082015250565b60006110af602083611068565b91506110ba82611079565b602082019050919050565b600060208201905081810360008301526110de816110a2565b9050919050565b7f5468652061756374696f6e20697320616c726561647920656e64656400000000600082015250565b600061111b601c83611068565b9150611126826110e5565b602082019050919050565b6000602082019050818103600083015261114a8161110e565b9050919050565b60006020820190506111666000830184610def565b92915050565b7f5468652061756374696f6e20697320616c726561647920737461727465640000600082015250565b60006111a2601e83611068565b91506111ad8261116c565b602082019050919050565b600060208201905081810360008301526111d181611195565b9050919050565b60006060820190506111ed6000830186610def565b6111fa6020830185610e30565b6112076040830184610def565b949350505050565b60006040820190506112246000830185610def565b6112316020830184610e30565b9392505050565b7f54686520736869706d656e74206973206e6f7420696e2074686520417563746960008201527f6f6e417070726f76656420737461747573000000000000000000000000000000602082015250565b6000611294603183611068565b915061129f82611238565b604082019050919050565b600060208201905081810360008301526112c381611287565b9050919050565b7f4e6f7420746865206f776e6572206f662074686520736869706d656e74000000600082015250565b6000611300601d83611068565b915061130b826112ca565b602082019050919050565b6000602082019050818103600083015261132f816112f3565b9050919050565b7f54686520736869706d656e74206973206e6f7420696e2074686520417563746960008201527f6f6e656420737461747573000000000000000000000000000000000000000000602082015250565b6000611392602b83611068565b915061139d82611336565b604082019050919050565b600060208201905081810360008301526113c181611385565b9050919050565b7f4f6e6c79206f66666963657220616e6420617070726f76652074686520636c6160008201527f696d207265717565737400000000000000000000000000000000000000000000602082015250565b6000611424602a83611068565b915061142f826113c8565b604082019050919050565b6000602082019050818103600083015261145381611417565b905091905056fea2646970667358221220b882b1108aceb359eaf5356db6234efc777576a0406bb3942a7771c98872ccde64736f6c63430008120033",
  "immutableReferences": {},
  "source": "// SPDX-License-Identifier: MIT\r\npragma solidity >0.8.0 <=0.9.0;\r\n\r\ncontract Auction{\r\n\r\n    enum ShipmentStatus {\r\n        Unclaimed,\r\n        AuctionReqApproved,\r\n        ClaimApproved\r\n    }\r\n    \r\n    struct Shipment {\r\n        uint shipmentId;\r\n        address owner;\r\n        address portOfficer;\r\n        uint price;\r\n        ShipmentStatus sState;\r\n    }\r\n\r\n    struct AuctionData {\r\n        address highestBidder;\r\n        uint highestBid;\r\n        bool started;\r\n        bool ended;\r\n    }\r\n\r\n    mapping(uint => AuctionData) public auctions;\r\n    mapping(uint => Shipment) public shipments;\r\n\r\n    \r\n    event ShipmentCreated(uint shipmentId, address owner);\r\n    event ClaimCargo(uint shipmentId);\r\n    event AuctionApprovedAndCargoAssignedToAuctionSC(uint shipmentId);\r\n    event AuctionStarted(uint shipmentId);\r\n    event Bid(uint shipmentId, address bidder, uint amount);\r\n    event AuctionEnded(uint shipmentId);\r\n\r\n    function createShipment(address _owner,address _portOfficer,uint _price) external {\r\n        uint _shipmentId = block.timestamp;\r\n        Shipment memory sp;\r\n        sp.shipmentId = _shipmentId;\r\n        sp.owner = _owner;\r\n        sp.portOfficer = _portOfficer;\r\n        sp.price = _price;\r\n        sp.sState = ShipmentStatus.Unclaimed;\r\n        shipments[_shipmentId] = sp;\r\n\r\n        emit ShipmentCreated(_shipmentId, _owner);\r\n    }\r\n    \r\n\r\n    function claimCargoRequest(uint _shipmentId, address _owner) external {\r\n        require(msg.sender == shipments[_shipmentId].portOfficer, \"Only officer and approve the claim request\");\r\n\r\n        if(shipments[_shipmentId].owner == _owner){\r\n            shipments[_shipmentId].sState = ShipmentStatus.ClaimApproved;\r\n            emit ClaimCargo(_shipmentId);\r\n        }\r\n    }\r\n\r\n    function auctionCargo(uint _shipmentId) external {\r\n        require(msg.sender == shipments[_shipmentId].portOfficer, \"Not the owner of the shipment\");\r\n        require(\r\n            shipments[_shipmentId].sState == ShipmentStatus.Unclaimed,\r\n            \"The shipment is not in the Auctioned status\"\r\n        );\r\n\r\n        shipments[_shipmentId].sState = ShipmentStatus.AuctionReqApproved;\r\n        emit AuctionApprovedAndCargoAssignedToAuctionSC(_shipmentId);\r\n    }\r\n\r\n    function start(uint _shipmentId) external {\r\n        require(msg.sender == shipments[_shipmentId].portOfficer, \"Only agents can start an auction\");\r\n        require(\r\n            shipments[_shipmentId].sState == ShipmentStatus.AuctionReqApproved,\r\n            \"The shipment is not in the AuctionApproved status\"\r\n        );\r\n\r\n        auctions[_shipmentId].started = true;\r\n        emit AuctionStarted(_shipmentId);\r\n    }\r\n\r\n    function bid(uint _shipmentId, uint amount) external {\r\n        require(!auctions[_shipmentId].started, \"The auction is already started\");\r\n\r\n        if (amount > shipments[_shipmentId].price) {\r\n            shipments[_shipmentId].price = amount;\r\n            auctions[_shipmentId].highestBid = amount;\r\n            auctions[_shipmentId].highestBidder = msg.sender;\r\n            emit Bid(_shipmentId, msg.sender, amount);\r\n        }\r\n    }\r\n\r\n    function end(uint _shipmentId) external {\r\n        require(msg.sender == shipments[_shipmentId].portOfficer, \"Only agents can start an auction\");\r\n        require(!auctions[_shipmentId].ended, \"The auction is already ended\");\r\n\r\n        if (auctions[_shipmentId].highestBidder != shipments[_shipmentId].owner) {\r\n            // Transfer ownership of the cargo to the highest bidder\r\n            shipments[_shipmentId].owner = auctions[_shipmentId].highestBidder;\r\n        }\r\n\r\n        auctions[_shipmentId].ended = true;\r\n        emit AuctionEnded(_shipmentId);\r\n    }\r\n\r\n}",
  "sourcePath": "D:\\2020 Courses\\Semester 8\\chain\\backend\\contracts\\Auction.sol",
  "compiler": {
    "name": "solc",
    "version": "0.8.18+commit.87f61d96.Emscripten.clang"
  },
  "schemaVersion": "3.4.16",
  "updatedAt": "2024-05-02T13:48:14.523Z",
  "networkType": "ethereum",
  "devdoc": {
    "kind": "dev",
    "methods": {},
    "version": 1
  },
  "userdoc": {
    "kind": "user",
    "methods": {},
    "version": 1
  }
}