{
  "contractName": "ContainerSC",
  "abi": [
    {
      "anonymous": false,
      "inputs": [
        {
          "indexed": false,
          "internalType": "uint256",
          "name": "containerId",
          "type": "uint256"
        },
        {
          "indexed": false,
          "internalType": "string",
          "name": "ipfsHash",
          "type": "string"
        }
      ],
      "name": "DocumentUploaded",
      "type": "event"
    },
    {
      "anonymous": false,
      "inputs": [
        {
          "indexed": false,
          "internalType": "uint256",
          "name": "containerId",
          "type": "uint256"
        }
      ],
      "name": "DocumentsVerified",
      "type": "event"
    },
    {
      "anonymous": false,
      "inputs": [
        {
          "indexed": false,
          "internalType": "uint256",
          "name": "containerId",
          "type": "uint256"
        }
      ],
      "name": "ShipmentClaimed",
      "type": "event"
    },
    {
      "anonymous": false,
      "inputs": [
        {
          "indexed": false,
          "internalType": "uint256",
          "name": "containerId",
          "type": "uint256"
        }
      ],
      "name": "ShipmentCompleted",
      "type": "event"
    },
    {
      "anonymous": false,
      "inputs": [
        {
          "indexed": false,
          "internalType": "uint256",
          "name": "containerId",
          "type": "uint256"
        }
      ],
      "name": "ShipmentCreated",
      "type": "event"
    },
    {
      "anonymous": false,
      "inputs": [
        {
          "indexed": false,
          "internalType": "uint256",
          "name": "containerId",
          "type": "uint256"
        }
      ],
      "name": "ShipmentDelivered",
      "type": "event"
    },
    {
      "anonymous": false,
      "inputs": [
        {
          "indexed": false,
          "internalType": "uint256",
          "name": "containerId",
          "type": "uint256"
        },
        {
          "indexed": false,
          "internalType": "address",
          "name": "sender",
          "type": "address"
        }
      ],
      "name": "ShipmentRequested",
      "type": "event"
    },
    {
      "anonymous": false,
      "inputs": [
        {
          "indexed": false,
          "internalType": "uint256",
          "name": "contianerId",
          "type": "uint256"
        }
      ],
      "name": "ShipmentUpdated",
      "type": "event"
    },
    {
      "inputs": [],
      "name": "containerCount",
      "outputs": [
        {
          "internalType": "uint256",
          "name": "",
          "type": "uint256"
        }
      ],
      "stateMutability": "view",
      "type": "function",
      "constant": true
    },
    {
      "inputs": [
        {
          "internalType": "uint256",
          "name": "",
          "type": "uint256"
        }
      ],
      "name": "containers",
      "outputs": [
        {
          "internalType": "string",
          "name": "origin",
          "type": "string"
        },
        {
          "internalType": "string",
          "name": "destination",
          "type": "string"
        },
        {
          "internalType": "string",
          "name": "size",
          "type": "string"
        },
        {
          "internalType": "string",
          "name": "content",
          "type": "string"
        },
        {
          "internalType": "address",
          "name": "sender",
          "type": "address"
        },
        {
          "internalType": "address",
          "name": "receiver",
          "type": "address"
        },
        {
          "internalType": "address",
          "name": "agent",
          "type": "address"
        },
        {
          "internalType": "address",
          "name": "receiverAgent",
          "type": "address"
        },
        {
          "internalType": "address",
          "name": "transporter",
          "type": "address"
        },
        {
          "internalType": "bool",
          "name": "Multimodal",
          "type": "bool"
        },
        {
          "internalType": "enum ContainerSC.ContainerState",
          "name": "state",
          "type": "uint8"
        }
      ],
      "stateMutability": "view",
      "type": "function",
      "constant": true
    },
    {
      "inputs": [
        {
          "internalType": "string",
          "name": "_origin",
          "type": "string"
        },
        {
          "internalType": "string",
          "name": "_destination",
          "type": "string"
        },
        {
          "internalType": "string",
          "name": "_size",
          "type": "string"
        },
        {
          "internalType": "string",
          "name": "_content",
          "type": "string"
        },
        {
          "internalType": "address",
          "name": "_sender",
          "type": "address"
        },
        {
          "internalType": "address",
          "name": "_receiver",
          "type": "address"
        },
        {
          "internalType": "address",
          "name": "_receiverAgent",
          "type": "address"
        },
        {
          "internalType": "address",
          "name": "_transporter",
          "type": "address"
        }
      ],
      "name": "requestShipment",
      "outputs": [],
      "stateMutability": "nonpayable",
      "type": "function"
    },
    {
      "inputs": [
        {
          "internalType": "uint256",
          "name": "_containerId",
          "type": "uint256"
        },
        {
          "internalType": "string",
          "name": "_origin",
          "type": "string"
        },
        {
          "internalType": "string",
          "name": "_destination",
          "type": "string"
        },
        {
          "internalType": "address",
          "name": "_receiverAgent",
          "type": "address"
        },
        {
          "internalType": "address",
          "name": "_transporter",
          "type": "address"
        }
      ],
      "name": "updateShipment",
      "outputs": [],
      "stateMutability": "nonpayable",
      "type": "function"
    },
    {
      "inputs": [
        {
          "internalType": "uint256",
          "name": "_containerId",
          "type": "uint256"
        }
      ],
      "name": "verifyDocuments",
      "outputs": [],
      "stateMutability": "nonpayable",
      "type": "function"
    },
    {
      "inputs": [
        {
          "internalType": "uint256",
          "name": "_containerId",
          "type": "uint256"
        },
        {
          "internalType": "bool",
          "name": "_multimodal",
          "type": "bool"
        }
      ],
      "name": "createShipment",
      "outputs": [],
      "stateMutability": "nonpayable",
      "type": "function"
    },
    {
      "inputs": [
        {
          "internalType": "uint256",
          "name": "_containerId",
          "type": "uint256"
        }
      ],
      "name": "deliverShipment",
      "outputs": [],
      "stateMutability": "nonpayable",
      "type": "function"
    },
    {
      "inputs": [
        {
          "internalType": "uint256",
          "name": "_containerId",
          "type": "uint256"
        }
      ],
      "name": "completeShipment",
      "outputs": [],
      "stateMutability": "nonpayable",
      "type": "function"
    },
    {
      "inputs": [
        {
          "internalType": "uint256",
          "name": "_containerId",
          "type": "uint256"
        },
        {
          "internalType": "address",
          "name": "_receiver",
          "type": "address"
        }
      ],
      "name": "claimShipment",
      "outputs": [],
      "stateMutability": "nonpayable",
      "type": "function"
    },
    {
      "inputs": [
        {
          "internalType": "uint256",
          "name": "_containerId",
          "type": "uint256"
        },
        {
          "internalType": "string",
          "name": "_hashIPFS",
          "type": "string"
        }
      ],
      "name": "uploadDocumentToIPFS",
      "outputs": [],
      "stateMutability": "nonpayable",
      "type": "function"
    },
    {
      "inputs": [
        {
          "internalType": "uint256",
          "name": "_containerId",
          "type": "uint256"
        },
        {
          "internalType": "uint256",
          "name": "_index",
          "type": "uint256"
        }
      ],
      "name": "getDocumentFromIPFS",
      "outputs": [
        {
          "internalType": "string",
          "name": "",
          "type": "string"
        }
      ],
      "stateMutability": "view",
      "type": "function",
      "constant": true
    },
    {
      "inputs": [],
      "name": "getAllContainers",
      "outputs": [
        {
          "components": [
            {
              "internalType": "string",
              "name": "origin",
              "type": "string"
            },
            {
              "internalType": "string",
              "name": "destination",
              "type": "string"
            },
            {
              "internalType": "string",
              "name": "size",
              "type": "string"
            },
            {
              "internalType": "string",
              "name": "content",
              "type": "string"
            },
            {
              "internalType": "address",
              "name": "sender",
              "type": "address"
            },
            {
              "internalType": "address",
              "name": "receiver",
              "type": "address"
            },
            {
              "internalType": "address",
              "name": "agent",
              "type": "address"
            },
            {
              "internalType": "address",
              "name": "receiverAgent",
              "type": "address"
            },
            {
              "internalType": "address",
              "name": "transporter",
              "type": "address"
            },
            {
              "internalType": "bool",
              "name": "Multimodal",
              "type": "bool"
            },
            {
              "internalType": "enum ContainerSC.ContainerState",
              "name": "state",
              "type": "uint8"
            },
            {
              "internalType": "string[]",
              "name": "IPFShash",
              "type": "string[]"
            }
          ],
          "internalType": "struct ContainerSC.Container[]",
          "name": "",
          "type": "tuple[]"
        }
      ],
      "stateMutability": "view",
      "type": "function",
      "constant": true
    }
  ],
  "bytecode": "0x608060405234801561001057600080fd5b50612dff806100206000396000f3fe608060405234801561001057600080fd5b50600436106100b45760003560e01c8063b49a750911610071578063b49a750914610177578063be73fd4d146101b1578063c550ec3c146101cd578063d38fbd42146101e9578063e0d5166414610207578063f15456b514610223576100b4565b80631eecc0e5146100b9578063217004d4146100e95780634ffb3ab0146101055780636c2e27d2146101215780639b6389c31461013d578063a0b76d031461015b575b600080fd5b6100d360048036038101906100ce9190611c3c565b61023f565b6040516100e09190611d0c565b60405180910390f35b61010360048036038101906100fe9190611d8c565b610303565b005b61011f600480360381019061011a9190611e04565b61051e565b005b61013b60048036038101906101369190611f79565b6106c3565b005b6101456107e0565b6040516101529190612358565b60405180910390f35b6101756004803603810190610170919061237a565b610dd4565b005b610191600480360381019061018c919061242d565b61104f565b6040516101a89b9a99989796959493929190612487565b60405180910390f35b6101cb60048036038101906101c6919061242d565b611383565b005b6101e760048036038101906101e2919061254e565b611565565b005b6101f161179f565b6040516101fe9190612683565b60405180910390f35b610221600480360381019061021c919061242d565b6117a5565b005b61023d6004803603810190610238919061242d565b61192d565b005b606060008084815260200190815260200160002060090182815481106102685761026761269e565b5b90600052602060002001805461027d906126fc565b80601f01602080910402602001604051908101604052809291908181526020018280546102a9906126fc565b80156102f65780601f106102cb576101008083540402835291602001916102f6565b820191906000526020600020905b8154815290600101906020018083116102d957829003601f168201915b5050505050905092915050565b600080600084815260200190815260200160002090506004600581111561032d5761032c612069565b5b8160080160159054906101000a900460ff16600581111561035157610350612069565b5b14610391576040517f08c379a000000000000000000000000000000000000000000000000000000000815260040161038890612779565b60405180910390fd5b8173ffffffffffffffffffffffffffffffffffffffff168160050160009054906101000a900473ffffffffffffffffffffffffffffffffffffffff1673ffffffffffffffffffffffffffffffffffffffff1614610423576040517f08c379a000000000000000000000000000000000000000000000000000000000815260040161041a906127e5565b60405180910390fd5b8060070160009054906101000a900473ffffffffffffffffffffffffffffffffffffffff1673ffffffffffffffffffffffffffffffffffffffff163373ffffffffffffffffffffffffffffffffffffffff16146104b5576040517f08c379a00000000000000000000000000000000000000000000000000000000081526004016104ac90612851565b60405180910390fd5b60058160080160156101000a81548160ff021916908360058111156104dd576104dc612069565b5b02179055507f02806f722b3072a7236506f33c9f882c6a7753a89fa63723261c2a2c9c657050836040516105119190612683565b60405180910390a1505050565b600080600084815260200190815260200160002090508060060160009054906101000a900473ffffffffffffffffffffffffffffffffffffffff1673ffffffffffffffffffffffffffffffffffffffff163373ffffffffffffffffffffffffffffffffffffffff16146105c6576040517f08c379a00000000000000000000000000000000000000000000000000000000081526004016105bd906128bd565b60405180910390fd5b600160058111156105da576105d9612069565b5b8160080160159054906101000a900460ff1660058111156105fe576105fd612069565b5b1461063e576040517f08c379a000000000000000000000000000000000000000000000000000000000815260040161063590612929565b60405180910390fd5b818160080160146101000a81548160ff02191690831515021790555060028160080160156101000a81548160ff0219169083600581111561068257610681612069565b5b02179055507fbaeab34bd61553e872f8886fa96319a779d7f547b1d5e46971046f9e909617fc836040516106b69190612683565b60405180910390a1505050565b600080600084815260200190815260200160002090508060060160009054906101000a900473ffffffffffffffffffffffffffffffffffffffff1673ffffffffffffffffffffffffffffffffffffffff163373ffffffffffffffffffffffffffffffffffffffff161461076b576040517f08c379a0000000000000000000000000000000000000000000000000000000008152600401610762906128bd565b60405180910390fd5b80600901829080600181540180825580915050600190039060005260206000200160009091909190915090816107a19190612af5565b507f7e70084d84488f1d46902bb7fa3b765328c23f5713ec1e5d426bc7c9b2e9e10483836040516107d3929190612bc7565b60405180910390a1505050565b6060600060015467ffffffffffffffff811115610800576107ff611e4e565b5b60405190808252806020026020018201604052801561083957816020015b610826611b0f565b81526020019060019003908161081e5790505b5090506000600190505b6001548111610dcc576000808281526020019081526020016000206040518061018001604052908160008201805461087a906126fc565b80601f01602080910402602001604051908101604052809291908181526020018280546108a6906126fc565b80156108f35780601f106108c8576101008083540402835291602001916108f3565b820191906000526020600020905b8154815290600101906020018083116108d657829003601f168201915b5050505050815260200160018201805461090c906126fc565b80601f0160208091040260200160405190810160405280929190818152602001828054610938906126fc565b80156109855780601f1061095a57610100808354040283529160200191610985565b820191906000526020600020905b81548152906001019060200180831161096857829003601f168201915b5050505050815260200160028201805461099e906126fc565b80601f01602080910402602001604051908101604052809291908181526020018280546109ca906126fc565b8015610a175780601f106109ec57610100808354040283529160200191610a17565b820191906000526020600020905b8154815290600101906020018083116109fa57829003601f168201915b50505050508152602001600382018054610a30906126fc565b80601f0160208091040260200160405190810160405280929190818152602001828054610a5c906126fc565b8015610aa95780601f10610a7e57610100808354040283529160200191610aa9565b820191906000526020600020905b815481529060010190602001808311610a8c57829003601f168201915b505050505081526020016004820160009054906101000a900473ffffffffffffffffffffffffffffffffffffffff1673ffffffffffffffffffffffffffffffffffffffff1673ffffffffffffffffffffffffffffffffffffffff1681526020016005820160009054906101000a900473ffffffffffffffffffffffffffffffffffffffff1673ffffffffffffffffffffffffffffffffffffffff1673ffffffffffffffffffffffffffffffffffffffff1681526020016006820160009054906101000a900473ffffffffffffffffffffffffffffffffffffffff1673ffffffffffffffffffffffffffffffffffffffff1673ffffffffffffffffffffffffffffffffffffffff1681526020016007820160009054906101000a900473ffffffffffffffffffffffffffffffffffffffff1673ffffffffffffffffffffffffffffffffffffffff1673ffffffffffffffffffffffffffffffffffffffff1681526020016008820160009054906101000a900473ffffffffffffffffffffffffffffffffffffffff1673ffffffffffffffffffffffffffffffffffffffff1673ffffffffffffffffffffffffffffffffffffffff1681526020016008820160149054906101000a900460ff161515151581526020016008820160159054906101000a900460ff166005811115610ca057610c9f612069565b5b6005811115610cb257610cb1612069565b5b815260200160098201805480602002602001604051908101604052809291908181526020016000905b82821015610d87578382906000526020600020018054610cfa906126fc565b80601f0160208091040260200160405190810160405280929190818152602001828054610d26906126fc565b8015610d735780601f10610d4857610100808354040283529160200191610d73565b820191906000526020600020905b815481529060010190602001808311610d5657829003601f168201915b505050505081526020019060010190610cdb565b505050508152505082600183610d9d9190612c26565b81518110610dae57610dad61269e565b5b60200260200101819052508080610dc490612c5a565b915050610843565b508091505090565b600080600087815260200190815260200160002090508060060160009054906101000a900473ffffffffffffffffffffffffffffffffffffffff1673ffffffffffffffffffffffffffffffffffffffff163373ffffffffffffffffffffffffffffffffffffffff1614610e7c576040517f08c379a0000000000000000000000000000000000000000000000000000000008152600401610e7390612cee565b60405180910390fd5b60046005811115610e9057610e8f612069565b5b8160080160159054906101000a900460ff166005811115610eb457610eb3612069565b5b14610ef4576040517f08c379a0000000000000000000000000000000000000000000000000000000008152600401610eeb90612d80565b60405180910390fd5b84816000019081610f059190612af5565b5083816001019081610f179190612af5565b50338160060160006101000a81548173ffffffffffffffffffffffffffffffffffffffff021916908373ffffffffffffffffffffffffffffffffffffffff160217905550828160070160006101000a81548173ffffffffffffffffffffffffffffffffffffffff021916908373ffffffffffffffffffffffffffffffffffffffff160217905550818160080160006101000a81548173ffffffffffffffffffffffffffffffffffffffff021916908373ffffffffffffffffffffffffffffffffffffffff16021790555060008160080160156101000a81548160ff0219169083600581111561100957611008612069565b5b02179055507f80a27aec51a5ec43230eb53564e9855cb1334628a5c0baaf9a7a2f705b70e92c60015460405161103f9190612683565b60405180910390a1505050505050565b6000602052806000526040600020600091509050806000018054611072906126fc565b80601f016020809104026020016040519081016040528092919081815260200182805461109e906126fc565b80156110eb5780601f106110c0576101008083540402835291602001916110eb565b820191906000526020600020905b8154815290600101906020018083116110ce57829003601f168201915b505050505090806001018054611100906126fc565b80601f016020809104026020016040519081016040528092919081815260200182805461112c906126fc565b80156111795780601f1061114e57610100808354040283529160200191611179565b820191906000526020600020905b81548152906001019060200180831161115c57829003601f168201915b50505050509080600201805461118e906126fc565b80601f01602080910402602001604051908101604052809291908181526020018280546111ba906126fc565b80156112075780601f106111dc57610100808354040283529160200191611207565b820191906000526020600020905b8154815290600101906020018083116111ea57829003601f168201915b50505050509080600301805461121c906126fc565b80601f0160208091040260200160405190810160405280929190818152602001828054611248906126fc565b80156112955780601f1061126a57610100808354040283529160200191611295565b820191906000526020600020905b81548152906001019060200180831161127857829003601f168201915b5050505050908060040160009054906101000a900473ffffffffffffffffffffffffffffffffffffffff16908060050160009054906101000a900473ffffffffffffffffffffffffffffffffffffffff16908060060160009054906101000a900473ffffffffffffffffffffffffffffffffffffffff16908060070160009054906101000a900473ffffffffffffffffffffffffffffffffffffffff16908060080160009054906101000a900473ffffffffffffffffffffffffffffffffffffffff16908060080160149054906101000a900460ff16908060080160159054906101000a900460ff1690508b565b600080600083815260200190815260200160002090508060060160009054906101000a900473ffffffffffffffffffffffffffffffffffffffff1673ffffffffffffffffffffffffffffffffffffffff163373ffffffffffffffffffffffffffffffffffffffff16148061144657508060070160009054906101000a900473ffffffffffffffffffffffffffffffffffffffff1673ffffffffffffffffffffffffffffffffffffffff163373ffffffffffffffffffffffffffffffffffffffff16145b611485576040517f08c379a000000000000000000000000000000000000000000000000000000000815260040161147c906128bd565b60405180910390fd5b6000600581111561149957611498612069565b5b8160080160159054906101000a900460ff1660058111156114bd576114bc612069565b5b146114fd576040517f08c379a00000000000000000000000000000000000000000000000000000000081526004016114f490612929565b60405180910390fd5b60018160080160156101000a81548160ff0219169083600581111561152557611524612069565b5b02179055507f6041f9d8afd08f868c84c410d8277bc0413acc3357dd18459b9a726dcbbca5a4826040516115599190612683565b60405180910390a15050565b6001600081548092919061157890612c5a565b9190505550600080600060015481526020019081526020016000209050888160000190816115a69190612af5565b50878160010190816115b89190612af5565b50868160020190816115ca9190612af5565b50858160030190816115dc9190612af5565b50848160040160006101000a81548173ffffffffffffffffffffffffffffffffffffffff021916908373ffffffffffffffffffffffffffffffffffffffff160217905550838160050160006101000a81548173ffffffffffffffffffffffffffffffffffffffff021916908373ffffffffffffffffffffffffffffffffffffffff160217905550338160060160006101000a81548173ffffffffffffffffffffffffffffffffffffffff021916908373ffffffffffffffffffffffffffffffffffffffff160217905550828160070160006101000a81548173ffffffffffffffffffffffffffffffffffffffff021916908373ffffffffffffffffffffffffffffffffffffffff160217905550818160080160006101000a81548173ffffffffffffffffffffffffffffffffffffffff021916908373ffffffffffffffffffffffffffffffffffffffff16021790555060008160080160156101000a81548160ff0219169083600581111561175457611753612069565b5b02179055507f0e0ca4df87d7446ca07598d6632cba6b98d58a257e7dfc0a0fa5423756edf1ef6001543360405161178c929190612da0565b60405180910390a1505050505050505050565b60015481565b600080600083815260200190815260200160002090508060070160009054906101000a900473ffffffffffffffffffffffffffffffffffffffff1673ffffffffffffffffffffffffffffffffffffffff163373ffffffffffffffffffffffffffffffffffffffff161461184d576040517f08c379a0000000000000000000000000000000000000000000000000000000008152600401611844906128bd565b60405180910390fd5b6002600581111561186157611860612069565b5b8160080160159054906101000a900460ff16600581111561188557611884612069565b5b146118c5576040517f08c379a00000000000000000000000000000000000000000000000000000000081526004016118bc90612929565b60405180910390fd5b60038160080160156101000a81548160ff021916908360058111156118ed576118ec612069565b5b02179055507fb38ad34cd662cdc85d2f4726f158113d43072434f3f9f9a4bb60d7ee6685f17b826040516119219190612683565b60405180910390a15050565b600080600083815260200190815260200160002090508060060160009054906101000a900473ffffffffffffffffffffffffffffffffffffffff1673ffffffffffffffffffffffffffffffffffffffff163373ffffffffffffffffffffffffffffffffffffffff1614806119f057508060070160009054906101000a900473ffffffffffffffffffffffffffffffffffffffff1673ffffffffffffffffffffffffffffffffffffffff163373ffffffffffffffffffffffffffffffffffffffff16145b611a2f576040517f08c379a0000000000000000000000000000000000000000000000000000000008152600401611a26906128bd565b60405180910390fd5b60036005811115611a4357611a42612069565b5b8160080160159054906101000a900460ff166005811115611a6757611a66612069565b5b14611aa7576040517f08c379a0000000000000000000000000000000000000000000000000000000008152600401611a9e90612929565b60405180910390fd5b60048160080160156101000a81548160ff02191690836005811115611acf57611ace612069565b5b02179055507ff2521007b00a18172d8c4088aeb49433fa7047334e5a495d8f2945b2004deffd82604051611b039190612683565b60405180910390a15050565b60405180610180016040528060608152602001606081526020016060815260200160608152602001600073ffffffffffffffffffffffffffffffffffffffff168152602001600073ffffffffffffffffffffffffffffffffffffffff168152602001600073ffffffffffffffffffffffffffffffffffffffff168152602001600073ffffffffffffffffffffffffffffffffffffffff168152602001600073ffffffffffffffffffffffffffffffffffffffff16815260200160001515815260200160006005811115611be557611be4612069565b5b8152602001606081525090565b6000604051905090565b600080fd5b600080fd5b6000819050919050565b611c1981611c06565b8114611c2457600080fd5b50565b600081359050611c3681611c10565b92915050565b60008060408385031215611c5357611c52611bfc565b5b6000611c6185828601611c27565b9250506020611c7285828601611c27565b9150509250929050565b600081519050919050565b600082825260208201905092915050565b60005b83811015611cb6578082015181840152602081019050611c9b565b60008484015250505050565b6000601f19601f8301169050919050565b6000611cde82611c7c565b611ce88185611c87565b9350611cf8818560208601611c98565b611d0181611cc2565b840191505092915050565b60006020820190508181036000830152611d268184611cd3565b905092915050565b600073ffffffffffffffffffffffffffffffffffffffff82169050919050565b6000611d5982611d2e565b9050919050565b611d6981611d4e565b8114611d7457600080fd5b50565b600081359050611d8681611d60565b92915050565b60008060408385031215611da357611da2611bfc565b5b6000611db185828601611c27565b9250506020611dc285828601611d77565b9150509250929050565b60008115159050919050565b611de181611dcc565b8114611dec57600080fd5b50565b600081359050611dfe81611dd8565b92915050565b60008060408385031215611e1b57611e1a611bfc565b5b6000611e2985828601611c27565b9250506020611e3a85828601611def565b9150509250929050565b600080fd5b600080fd5b7f4e487b7100000000000000000000000000000000000000000000000000000000600052604160045260246000fd5b611e8682611cc2565b810181811067ffffffffffffffff82111715611ea557611ea4611e4e565b5b80604052505050565b6000611eb8611bf2565b9050611ec48282611e7d565b919050565b600067ffffffffffffffff821115611ee457611ee3611e4e565b5b611eed82611cc2565b9050602081019050919050565b82818337600083830152505050565b6000611f1c611f1784611ec9565b611eae565b905082815260208101848484011115611f3857611f37611e49565b5b611f43848285611efa565b509392505050565b600082601f830112611f6057611f5f611e44565b5b8135611f70848260208601611f09565b91505092915050565b60008060408385031215611f9057611f8f611bfc565b5b6000611f9e85828601611c27565b925050602083013567ffffffffffffffff811115611fbf57611fbe611c01565b5b611fcb85828601611f4b565b9150509250929050565b600081519050919050565b600082825260208201905092915050565b6000819050602082019050919050565b600082825260208201905092915050565b600061201d82611c7c565b6120278185612001565b9350612037818560208601611c98565b61204081611cc2565b840191505092915050565b61205481611d4e565b82525050565b61206381611dcc565b82525050565b7f4e487b7100000000000000000000000000000000000000000000000000000000600052602160045260246000fd5b600681106120a9576120a8612069565b5b50565b60008190506120ba82612098565b919050565b60006120ca826120ac565b9050919050565b6120da816120bf565b82525050565b600081519050919050565b600082825260208201905092915050565b6000819050602082019050919050565b60006121188383612012565b905092915050565b6000602082019050919050565b6000612138826120e0565b61214281856120eb565b935083602082028501612154856120fc565b8060005b858110156121905784840389528151612171858261210c565b945061217c83612120565b925060208a01995050600181019050612158565b50829750879550505050505092915050565b60006101808301600083015184820360008601526121c08282612012565b915050602083015184820360208601526121da8282612012565b915050604083015184820360408601526121f48282612012565b9150506060830151848203606086015261220e8282612012565b9150506080830151612223608086018261204b565b5060a083015161223660a086018261204b565b5060c083015161224960c086018261204b565b5060e083015161225c60e086018261204b565b5061010083015161227161010086018261204b565b5061012083015161228661012086018261205a565b5061014083015161229b6101408601826120d1565b506101608301518482036101608601526122b5828261212d565b9150508091505092915050565b60006122ce83836121a2565b905092915050565b6000602082019050919050565b60006122ee82611fd5565b6122f88185611fe0565b93508360208202850161230a85611ff1565b8060005b85811015612346578484038952815161232785826122c2565b9450612332836122d6565b925060208a0199505060018101905061230e565b50829750879550505050505092915050565b6000602082019050818103600083015261237281846122e3565b905092915050565b600080600080600060a0868803121561239657612395611bfc565b5b60006123a488828901611c27565b955050602086013567ffffffffffffffff8111156123c5576123c4611c01565b5b6123d188828901611f4b565b945050604086013567ffffffffffffffff8111156123f2576123f1611c01565b5b6123fe88828901611f4b565b935050606061240f88828901611d77565b925050608061242088828901611d77565b9150509295509295909350565b60006020828403121561244357612442611bfc565b5b600061245184828501611c27565b91505092915050565b61246381611d4e565b82525050565b61247281611dcc565b82525050565b612481816120bf565b82525050565b60006101608201905081810360008301526124a2818e611cd3565b905081810360208301526124b6818d611cd3565b905081810360408301526124ca818c611cd3565b905081810360608301526124de818b611cd3565b90506124ed608083018a61245a565b6124fa60a083018961245a565b61250760c083018861245a565b61251460e083018761245a565b61252261010083018661245a565b612530610120830185612469565b61253e610140830184612478565b9c9b505050505050505050505050565b600080600080600080600080610100898b03121561256f5761256e611bfc565b5b600089013567ffffffffffffffff81111561258d5761258c611c01565b5b6125998b828c01611f4b565b985050602089013567ffffffffffffffff8111156125ba576125b9611c01565b5b6125c68b828c01611f4b565b975050604089013567ffffffffffffffff8111156125e7576125e6611c01565b5b6125f38b828c01611f4b565b965050606089013567ffffffffffffffff81111561261457612613611c01565b5b6126208b828c01611f4b565b95505060806126318b828c01611d77565b94505060a06126428b828c01611d77565b93505060c06126538b828c01611d77565b92505060e06126648b828c01611d77565b9150509295985092959890939650565b61267d81611c06565b82525050565b60006020820190506126986000830184612674565b92915050565b7f4e487b7100000000000000000000000000000000000000000000000000000000600052603260045260246000fd5b7f4e487b7100000000000000000000000000000000000000000000000000000000600052602260045260246000fd5b6000600282049050600182168061271457607f821691505b602082108103612727576127266126cd565b5b50919050565b7f536869706d656e74206e6f742072656163686564207965740000000000000000600082015250565b6000612763601883611c87565b915061276e8261272d565b602082019050919050565b6000602082019050818103600083015261279281612756565b9050919050565b7f496e76616c696420726563656976657200000000000000000000000000000000600082015250565b60006127cf601083611c87565b91506127da82612799565b602082019050919050565b600060208201905081810360008301526127fe816127c2565b9050919050565b7f436c61696d204e6f7420616c6c6f776564000000000000000000000000000000600082015250565b600061283b601183611c87565b915061284682612805565b602082019050919050565b6000602082019050818103600083015261286a8161282e565b9050919050565b7f556e617574686f72697a65640000000000000000000000000000000000000000600082015250565b60006128a7600c83611c87565b91506128b282612871565b602082019050919050565b600060208201905081810360008301526128d68161289a565b9050919050565b7f496e76616c696420737461746500000000000000000000000000000000000000600082015250565b6000612913600d83611c87565b915061291e826128dd565b602082019050919050565b6000602082019050818103600083015261294281612906565b9050919050565b60008190508160005260206000209050919050565b60006020601f8301049050919050565b600082821b905092915050565b6000600883026129ab7fffffffffffffffffffffffffffffffffffffffffffffffffffffffffffffffff8261296e565b6129b5868361296e565b95508019841693508086168417925050509392505050565b6000819050919050565b60006129f26129ed6129e884611c06565b6129cd565b611c06565b9050919050565b6000819050919050565b612a0c836129d7565b612a20612a18826129f9565b84845461297b565b825550505050565b600090565b612a35612a28565b612a40818484612a03565b505050565b5b81811015612a6457612a59600082612a2d565b600181019050612a46565b5050565b601f821115612aa957612a7a81612949565b612a838461295e565b81016020851015612a92578190505b612aa6612a9e8561295e565b830182612a45565b50505b505050565b600082821c905092915050565b6000612acc60001984600802612aae565b1980831691505092915050565b6000612ae58383612abb565b9150826002028217905092915050565b612afe82611c7c565b67ffffffffffffffff811115612b1757612b16611e4e565b5b612b2182546126fc565b612b2c828285612a68565b600060209050601f831160018114612b5f5760008415612b4d578287015190505b612b578582612ad9565b865550612bbf565b601f198416612b6d86612949565b60005b82811015612b9557848901518255600182019150602085019450602081019050612b70565b86831015612bb25784890151612bae601f891682612abb565b8355505b6001600288020188555050505b505050505050565b6000604082019050612bdc6000830185612674565b8181036020830152612bee8184611cd3565b90509392505050565b7f4e487b7100000000000000000000000000000000000000000000000000000000600052601160045260246000fd5b6000612c3182611c06565b9150612c3c83611c06565b9250828203905081811115612c5457612c53612bf7565b5b92915050565b6000612c6582611c06565b91507fffffffffffffffffffffffffffffffffffffffffffffffffffffffffffffffff8203612c9757612c96612bf7565b5b600182019050919050565b7f496e76616c696420557365720000000000000000000000000000000000000000600082015250565b6000612cd8600c83611c87565b9150612ce382612ca2565b602082019050919050565b60006020820190508181036000830152612d0781612ccb565b9050919050565b7f43616e6e6f7420466f727761726420746865207061636b61676520736f6d656f60008201527f6e6520686176652073746f6c656e206974000000000000000000000000000000602082015250565b6000612d6a603183611c87565b9150612d7582612d0e565b604082019050919050565b60006020820190508181036000830152612d9981612d5d565b9050919050565b6000604082019050612db56000830185612674565b612dc2602083018461245a565b939250505056fea2646970667358221220de3555f5df59879cd6d3fdb4608c99f73943c7f1d1eef1667f5552e7b36f2f1964736f6c63430008120033",
  "immutableReferences": {},
  "source": "// SPDX-License-Identifier: MIT\r\n\r\npragma solidity ^0.8.0;\r\n\r\ncontract ContainerSC {\r\n\r\n    enum ContainerState {\r\n        Created,\r\n        DocumentsVerified,\r\n        ShipmentInProgress,\r\n        ShipmentDelivered,\r\n        Completed,\r\n        Claim\r\n    }\r\n\r\n    struct Container {\r\n        string origin;\r\n        string destination;\r\n        string size;\r\n        string content;\r\n        address sender;\r\n        address receiver;\r\n        address agent;\r\n        address receiverAgent;\r\n        address transporter;\r\n        bool Multimodal;\r\n        ContainerState state;\r\n        string[] IPFShash;\r\n    }\r\n\r\n    mapping(uint256 => Container) public containers;\r\n    uint256 public containerCount;\r\n\r\n    event ShipmentRequested(uint256 containerId, address sender);\r\n    event ShipmentUpdated(uint256 contianerId);\r\n    event DocumentsVerified(uint256 containerId);\r\n    event ShipmentCreated(uint256 containerId);\r\n    event ShipmentDelivered(uint256 containerId);\r\n    event ShipmentCompleted(uint256 containerId);\r\n    event ShipmentClaimed(uint256 containerId);\r\n    event DocumentUploaded(uint256 containerId, string ipfsHash);\r\n\r\n    function requestShipment(\r\n        string memory _origin,\r\n        string memory _destination,\r\n        string memory _size,\r\n        string memory _content,\r\n        address _sender,\r\n        address _receiver,\r\n        address _receiverAgent,\r\n        address _transporter\r\n    ) external {\r\n        containerCount++;\r\n        Container storage newContainer = containers[containerCount];\r\n        newContainer.origin = _origin;\r\n        newContainer.destination = _destination;\r\n        newContainer.size = _size;\r\n        newContainer.content = _content;\r\n        newContainer.sender = _sender;\r\n        newContainer.receiver = _receiver;\r\n        newContainer.agent = msg.sender;\r\n        newContainer.receiverAgent = _receiverAgent;\r\n        newContainer.transporter = _transporter;\r\n        newContainer.state = ContainerState.Created;\r\n        \r\n        emit ShipmentRequested(containerCount, msg.sender);\r\n    }\r\n\r\n    function updateShipment(\r\n        uint256 _containerId,\r\n        string memory _origin,\r\n        string memory _destination,\r\n        address _receiverAgent,\r\n        address _transporter\r\n    ) external {\r\n        Container storage updateContainer = containers[_containerId];\r\n        require(msg.sender == updateContainer.agent,\"Invalid User\");\r\n        require(updateContainer.state == ContainerState.Completed,\"Cannot Forward the package someone have stolen it\");\r\n        updateContainer.origin = _origin;\r\n        updateContainer.destination = _destination;\r\n        updateContainer.agent = msg.sender;\r\n        updateContainer.receiverAgent = _receiverAgent;\r\n        updateContainer.transporter = _transporter;\r\n        updateContainer.state = ContainerState.Created;\r\n        \r\n        emit ShipmentUpdated(containerCount);\r\n    }\r\n\r\n    function verifyDocuments(uint256 _containerId) external {\r\n        Container storage container = containers[_containerId];\r\n        require(msg.sender == container.agent || msg.sender == container.receiverAgent, \"Unauthorized\");\r\n        require(container.state == ContainerState.Created, \"Invalid state\");\r\n        \r\n        container.state = ContainerState.DocumentsVerified;\r\n        emit DocumentsVerified(_containerId);\r\n    }\r\n\r\n    function createShipment(uint256 _containerId,bool _multimodal) external {\r\n        Container storage container = containers[_containerId];\r\n        require(msg.sender == container.agent, \"Unauthorized\");\r\n        require(container.state == ContainerState.DocumentsVerified, \"Invalid state\");\r\n\r\n        container.Multimodal = _multimodal;        \r\n        container.state = ContainerState.ShipmentInProgress;\r\n        emit ShipmentCreated(_containerId);\r\n    }\r\n\r\n    function deliverShipment(uint256 _containerId) external {\r\n        Container storage container = containers[_containerId];\r\n        require(msg.sender == container.receiverAgent, \"Unauthorized\");\r\n        require(container.state == ContainerState.ShipmentInProgress, \"Invalid state\");\r\n        \r\n        container.state = ContainerState.ShipmentDelivered;\r\n        emit ShipmentDelivered(_containerId);\r\n    }\r\n\r\n    function completeShipment(uint256 _containerId) external {\r\n        Container storage container = containers[_containerId];\r\n        require(msg.sender == container.agent || msg.sender == container.receiverAgent, \"Unauthorized\");\r\n        require(container.state == ContainerState.ShipmentDelivered, \"Invalid state\");\r\n        \r\n        container.state = ContainerState.Completed;\r\n        emit ShipmentCompleted(_containerId);\r\n    }\r\n\r\n    function claimShipment(uint256 _containerId , address _receiver) external {\r\n        Container storage container = containers[_containerId];\r\n        require(container.state == ContainerState.Completed, \"Shipment not reached yet\");\r\n        require(container.receiver == _receiver, \"Invalid receiver\");\r\n        require(msg.sender == container.receiverAgent,\"Claim Not allowed\");\r\n\r\n        container.state = ContainerState.Claim;\r\n        emit ShipmentClaimed(_containerId);\r\n        \r\n    }\r\n\r\n    function uploadDocumentToIPFS(uint256 _containerId, string memory _hashIPFS) external {\r\n        Container storage container = containers[_containerId];\r\n        require(msg.sender == container.agent, \"Unauthorized\");\r\n        \r\n        container.IPFShash.push(_hashIPFS);\r\n        emit DocumentUploaded(_containerId, _hashIPFS);\r\n    }\r\n\r\n    function getDocumentFromIPFS(uint256 _containerId, uint256 _index) external view returns (string memory) {\r\n        return containers[_containerId].IPFShash[_index];\r\n    }\r\n\r\n    function getAllContainers() external view returns (Container[] memory) {\r\n        Container[] memory allContainers = new Container[](containerCount);\r\n        for (uint256 i = 1; i <= containerCount; i++) {\r\n            allContainers[i - 1] = containers[i];\r\n        }\r\n        return allContainers;\r\n    }\r\n}\r\n",
  "sourcePath": "D:\\2020 Courses\\Semester 8\\chain\\backend\\contracts\\ContainerSC.sol",
  "compiler": {
    "name": "solc",
    "version": "0.8.18+commit.87f61d96.Emscripten.clang"
  },
  "schemaVersion": "3.4.16",
  "updatedAt": "2024-04-17T21:32:32.097Z",
  "networkType": "ethereum",
  "devdoc": {
    "kind": "dev",
    "methods": {},
    "version": 1
  },
  "userdoc": {
    "kind": "user",
    "methods": {},
    "version": 1
  }
}