{
  "contractName": "ContainerSC",
  "abi": [
    {
      "anonymous": false,
      "inputs": [
        {
          "indexed": false,
          "internalType": "uint256",
          "name": "containerId",
          "type": "uint256"
        },
        {
          "indexed": false,
          "internalType": "string",
          "name": "ipfsHash",
          "type": "string"
        }
      ],
      "name": "DocumentUploaded",
      "type": "event"
    },
    {
      "anonymous": false,
      "inputs": [
        {
          "indexed": false,
          "internalType": "uint256",
          "name": "containerId",
          "type": "uint256"
        }
      ],
      "name": "DocumentsVerified",
      "type": "event"
    },
    {
      "anonymous": false,
      "inputs": [
        {
          "indexed": false,
          "internalType": "uint256",
          "name": "containerId",
          "type": "uint256"
        }
      ],
      "name": "ShipmentClaimed",
      "type": "event"
    },
    {
      "anonymous": false,
      "inputs": [
        {
          "indexed": false,
          "internalType": "uint256",
          "name": "containerId",
          "type": "uint256"
        }
      ],
      "name": "ShipmentCompleted",
      "type": "event"
    },
    {
      "anonymous": false,
      "inputs": [
        {
          "indexed": false,
          "internalType": "uint256",
          "name": "containerId",
          "type": "uint256"
        }
      ],
      "name": "ShipmentCreated",
      "type": "event"
    },
    {
      "anonymous": false,
      "inputs": [
        {
          "indexed": false,
          "internalType": "uint256",
          "name": "containerId",
          "type": "uint256"
        }
      ],
      "name": "ShipmentDelivered",
      "type": "event"
    },
    {
      "anonymous": false,
      "inputs": [
        {
          "indexed": false,
          "internalType": "uint256",
          "name": "containerId",
          "type": "uint256"
        },
        {
          "indexed": false,
          "internalType": "address",
          "name": "sender",
          "type": "address"
        }
      ],
      "name": "ShipmentRequested",
      "type": "event"
    },
    {
      "anonymous": false,
      "inputs": [
        {
          "indexed": false,
          "internalType": "uint256",
          "name": "contianerId",
          "type": "uint256"
        }
      ],
      "name": "ShipmentUpdated",
      "type": "event"
    },
    {
      "inputs": [],
      "name": "containerCount",
      "outputs": [
        {
          "internalType": "uint256",
          "name": "",
          "type": "uint256"
        }
      ],
      "stateMutability": "view",
      "type": "function",
      "constant": true
    },
    {
      "inputs": [
        {
          "internalType": "uint256",
          "name": "",
          "type": "uint256"
        }
      ],
      "name": "containers",
      "outputs": [
        {
          "internalType": "string",
          "name": "origin",
          "type": "string"
        },
        {
          "internalType": "string",
          "name": "destination",
          "type": "string"
        },
        {
          "internalType": "string",
          "name": "size",
          "type": "string"
        },
        {
          "internalType": "string",
          "name": "content",
          "type": "string"
        },
        {
          "internalType": "address",
          "name": "sender",
          "type": "address"
        },
        {
          "internalType": "address",
          "name": "receiver",
          "type": "address"
        },
        {
          "internalType": "address",
          "name": "agent",
          "type": "address"
        },
        {
          "internalType": "address",
          "name": "receiverAgent",
          "type": "address"
        },
        {
          "internalType": "address",
          "name": "transporter",
          "type": "address"
        },
        {
          "internalType": "bool",
          "name": "Multimodal",
          "type": "bool"
        },
        {
          "internalType": "enum ContainerSC.ContainerState",
          "name": "state",
          "type": "uint8"
        },
        {
          "internalType": "string",
          "name": "IPFShash",
          "type": "string"
        }
      ],
      "stateMutability": "view",
      "type": "function",
      "constant": true
    },
    {
      "inputs": [
        {
          "internalType": "string",
          "name": "_origin",
          "type": "string"
        },
        {
          "internalType": "string",
          "name": "_destination",
          "type": "string"
        },
        {
          "internalType": "string",
          "name": "_size",
          "type": "string"
        },
        {
          "internalType": "string",
          "name": "_content",
          "type": "string"
        },
        {
          "internalType": "address",
          "name": "_sender",
          "type": "address"
        },
        {
          "internalType": "address",
          "name": "_receiver",
          "type": "address"
        },
        {
          "internalType": "address",
          "name": "_receiverAgent",
          "type": "address"
        },
        {
          "internalType": "address",
          "name": "_transporter",
          "type": "address"
        }
      ],
      "name": "requestShipment",
      "outputs": [],
      "stateMutability": "nonpayable",
      "type": "function"
    },
    {
      "inputs": [
        {
          "internalType": "uint256",
          "name": "_containerId",
          "type": "uint256"
        },
        {
          "internalType": "string",
          "name": "_origin",
          "type": "string"
        },
        {
          "internalType": "string",
          "name": "_destination",
          "type": "string"
        },
        {
          "internalType": "address",
          "name": "_receiverAgent",
          "type": "address"
        },
        {
          "internalType": "address",
          "name": "_transporter",
          "type": "address"
        }
      ],
      "name": "updateShipment",
      "outputs": [],
      "stateMutability": "nonpayable",
      "type": "function"
    },
    {
      "inputs": [
        {
          "internalType": "uint256",
          "name": "_containerId",
          "type": "uint256"
        }
      ],
      "name": "verifyDocuments",
      "outputs": [],
      "stateMutability": "nonpayable",
      "type": "function"
    },
    {
      "inputs": [
        {
          "internalType": "uint256",
          "name": "_containerId",
          "type": "uint256"
        },
        {
          "internalType": "bool",
          "name": "_multimodal",
          "type": "bool"
        }
      ],
      "name": "createShipment",
      "outputs": [],
      "stateMutability": "nonpayable",
      "type": "function"
    },
    {
      "inputs": [
        {
          "internalType": "uint256",
          "name": "_containerId",
          "type": "uint256"
        }
      ],
      "name": "deliverShipment",
      "outputs": [],
      "stateMutability": "nonpayable",
      "type": "function"
    },
    {
      "inputs": [
        {
          "internalType": "uint256",
          "name": "_containerId",
          "type": "uint256"
        }
      ],
      "name": "completeShipment",
      "outputs": [],
      "stateMutability": "nonpayable",
      "type": "function"
    },
    {
      "inputs": [
        {
          "internalType": "uint256",
          "name": "_containerId",
          "type": "uint256"
        },
        {
          "internalType": "address",
          "name": "_receiver",
          "type": "address"
        }
      ],
      "name": "claimShipment",
      "outputs": [],
      "stateMutability": "nonpayable",
      "type": "function"
    },
    {
      "inputs": [
        {
          "internalType": "uint256",
          "name": "_containerId",
          "type": "uint256"
        },
        {
          "internalType": "string",
          "name": "_hashIPFS",
          "type": "string"
        }
      ],
      "name": "uploadDocumentToIPFS",
      "outputs": [],
      "stateMutability": "nonpayable",
      "type": "function"
    },
    {
      "inputs": [
        {
          "internalType": "uint256",
          "name": "_containerId",
          "type": "uint256"
        }
      ],
      "name": "getDocumentFromIPFS",
      "outputs": [
        {
          "internalType": "string",
          "name": "",
          "type": "string"
        }
      ],
      "stateMutability": "view",
      "type": "function",
      "constant": true
    },
    {
      "inputs": [],
      "name": "getAllContainers",
      "outputs": [
        {
          "components": [
            {
              "internalType": "string",
              "name": "origin",
              "type": "string"
            },
            {
              "internalType": "string",
              "name": "destination",
              "type": "string"
            },
            {
              "internalType": "string",
              "name": "size",
              "type": "string"
            },
            {
              "internalType": "string",
              "name": "content",
              "type": "string"
            },
            {
              "internalType": "address",
              "name": "sender",
              "type": "address"
            },
            {
              "internalType": "address",
              "name": "receiver",
              "type": "address"
            },
            {
              "internalType": "address",
              "name": "agent",
              "type": "address"
            },
            {
              "internalType": "address",
              "name": "receiverAgent",
              "type": "address"
            },
            {
              "internalType": "address",
              "name": "transporter",
              "type": "address"
            },
            {
              "internalType": "bool",
              "name": "Multimodal",
              "type": "bool"
            },
            {
              "internalType": "enum ContainerSC.ContainerState",
              "name": "state",
              "type": "uint8"
            },
            {
              "internalType": "string",
              "name": "IPFShash",
              "type": "string"
            }
          ],
          "internalType": "struct ContainerSC.Container[]",
          "name": "",
          "type": "tuple[]"
        }
      ],
      "stateMutability": "view",
      "type": "function",
      "constant": true
    }
  ],
  "bytecode": "0x608060405234801561001057600080fd5b50612d19806100206000396000f3fe608060405234801561001057600080fd5b50600436106100b45760003560e01c8063b49a750911610071578063b49a750914610177578063be73fd4d146101b2578063c550ec3c146101ce578063d38fbd42146101ea578063e0d5166414610208578063f15456b514610224576100b4565b8063217004d4146100b95780634bbaa396146100d55780634ffb3ab0146101055780636c2e27d2146101215780639b6389c31461013d578063a0b76d031461015b575b600080fd5b6100d360048036038101906100ce9190611ca0565b610240565b005b6100ef60048036038101906100ea9190611ce0565b61045b565b6040516100fc9190611d9d565b60405180910390f35b61011f600480360381019061011a9190611df7565b610502565b005b61013b60048036038101906101369190611f6c565b6106a7565b005b61014561079f565b6040516101529190612289565b60405180910390f35b610175600480360381019061017091906122ab565b610d4c565b005b610191600480360381019061018c9190611ce0565b610fc7565b6040516101a99c9b9a9998979695949392919061238b565b60405180910390f35b6101cc60048036038101906101c79190611ce0565b611389565b005b6101e860048036038101906101e39190612468565b61156b565b005b6101f26117a5565b6040516101ff919061259d565b60405180910390f35b610222600480360381019061021d9190611ce0565b6117ab565b005b61023e60048036038101906102399190611ce0565b611933565b005b600080600084815260200190815260200160002090506004600581111561026a5761026961205c565b5b8160080160159054906101000a900460ff16600581111561028e5761028d61205c565b5b146102ce576040517f08c379a00000000000000000000000000000000000000000000000000000000081526004016102c590612604565b60405180910390fd5b8173ffffffffffffffffffffffffffffffffffffffff168160050160009054906101000a900473ffffffffffffffffffffffffffffffffffffffff1673ffffffffffffffffffffffffffffffffffffffff1614610360576040517f08c379a000000000000000000000000000000000000000000000000000000000815260040161035790612670565b60405180910390fd5b8060070160009054906101000a900473ffffffffffffffffffffffffffffffffffffffff1673ffffffffffffffffffffffffffffffffffffffff163373ffffffffffffffffffffffffffffffffffffffff16146103f2576040517f08c379a00000000000000000000000000000000000000000000000000000000081526004016103e9906126dc565b60405180910390fd5b60058160080160156101000a81548160ff0219169083600581111561041a5761041961205c565b5b02179055507f02806f722b3072a7236506f33c9f882c6a7753a89fa63723261c2a2c9c6570508360405161044e919061259d565b60405180910390a1505050565b6060600080838152602001908152602001600020600901805461047d9061272b565b80601f01602080910402602001604051908101604052809291908181526020018280546104a99061272b565b80156104f65780601f106104cb576101008083540402835291602001916104f6565b820191906000526020600020905b8154815290600101906020018083116104d957829003601f168201915b50505050509050919050565b600080600084815260200190815260200160002090508060060160009054906101000a900473ffffffffffffffffffffffffffffffffffffffff1673ffffffffffffffffffffffffffffffffffffffff163373ffffffffffffffffffffffffffffffffffffffff16146105aa576040517f08c379a00000000000000000000000000000000000000000000000000000000081526004016105a1906127a8565b60405180910390fd5b600160058111156105be576105bd61205c565b5b8160080160159054906101000a900460ff1660058111156105e2576105e161205c565b5b14610622576040517f08c379a000000000000000000000000000000000000000000000000000000000815260040161061990612814565b60405180910390fd5b818160080160146101000a81548160ff02191690831515021790555060028160080160156101000a81548160ff021916908360058111156106665761066561205c565b5b02179055507fbaeab34bd61553e872f8886fa96319a779d7f547b1d5e46971046f9e909617fc8360405161069a919061259d565b60405180910390a1505050565b600080600084815260200190815260200160002090508060060160009054906101000a900473ffffffffffffffffffffffffffffffffffffffff1673ffffffffffffffffffffffffffffffffffffffff163373ffffffffffffffffffffffffffffffffffffffff161461074f576040517f08c379a0000000000000000000000000000000000000000000000000000000008152600401610746906127a8565b60405180910390fd5b8181600901908161076091906129e0565b507f7e70084d84488f1d46902bb7fa3b765328c23f5713ec1e5d426bc7c9b2e9e1048383604051610792929190612ab2565b60405180910390a1505050565b6060600060015467ffffffffffffffff8111156107bf576107be611e41565b5b6040519080825280602002602001820160405280156107f857816020015b6107e5611b15565b8152602001906001900390816107dd5790505b5090506000600190505b6001548111610d4457600080828152602001908152602001600020604051806101800160405290816000820180546108399061272b565b80601f01602080910402602001604051908101604052809291908181526020018280546108659061272b565b80156108b25780601f10610887576101008083540402835291602001916108b2565b820191906000526020600020905b81548152906001019060200180831161089557829003601f168201915b505050505081526020016001820180546108cb9061272b565b80601f01602080910402602001604051908101604052809291908181526020018280546108f79061272b565b80156109445780601f1061091957610100808354040283529160200191610944565b820191906000526020600020905b81548152906001019060200180831161092757829003601f168201915b5050505050815260200160028201805461095d9061272b565b80601f01602080910402602001604051908101604052809291908181526020018280546109899061272b565b80156109d65780601f106109ab576101008083540402835291602001916109d6565b820191906000526020600020905b8154815290600101906020018083116109b957829003601f168201915b505050505081526020016003820180546109ef9061272b565b80601f0160208091040260200160405190810160405280929190818152602001828054610a1b9061272b565b8015610a685780601f10610a3d57610100808354040283529160200191610a68565b820191906000526020600020905b815481529060010190602001808311610a4b57829003601f168201915b505050505081526020016004820160009054906101000a900473ffffffffffffffffffffffffffffffffffffffff1673ffffffffffffffffffffffffffffffffffffffff1673ffffffffffffffffffffffffffffffffffffffff1681526020016005820160009054906101000a900473ffffffffffffffffffffffffffffffffffffffff1673ffffffffffffffffffffffffffffffffffffffff1673ffffffffffffffffffffffffffffffffffffffff1681526020016006820160009054906101000a900473ffffffffffffffffffffffffffffffffffffffff1673ffffffffffffffffffffffffffffffffffffffff1673ffffffffffffffffffffffffffffffffffffffff1681526020016007820160009054906101000a900473ffffffffffffffffffffffffffffffffffffffff1673ffffffffffffffffffffffffffffffffffffffff1673ffffffffffffffffffffffffffffffffffffffff1681526020016008820160009054906101000a900473ffffffffffffffffffffffffffffffffffffffff1673ffffffffffffffffffffffffffffffffffffffff1673ffffffffffffffffffffffffffffffffffffffff1681526020016008820160149054906101000a900460ff161515151581526020016008820160159054906101000a900460ff166005811115610c5f57610c5e61205c565b5b6005811115610c7157610c7061205c565b5b8152602001600982018054610c859061272b565b80601f0160208091040260200160405190810160405280929190818152602001828054610cb19061272b565b8015610cfe5780601f10610cd357610100808354040283529160200191610cfe565b820191906000526020600020905b815481529060010190602001808311610ce157829003601f168201915b50505050508152505082600183610d159190612b11565b81518110610d2657610d25612b45565b5b60200260200101819052508080610d3c90612b74565b915050610802565b508091505090565b600080600087815260200190815260200160002090508060060160009054906101000a900473ffffffffffffffffffffffffffffffffffffffff1673ffffffffffffffffffffffffffffffffffffffff163373ffffffffffffffffffffffffffffffffffffffff1614610df4576040517f08c379a0000000000000000000000000000000000000000000000000000000008152600401610deb90612c08565b60405180910390fd5b60046005811115610e0857610e0761205c565b5b8160080160159054906101000a900460ff166005811115610e2c57610e2b61205c565b5b14610e6c576040517f08c379a0000000000000000000000000000000000000000000000000000000008152600401610e6390612c9a565b60405180910390fd5b84816000019081610e7d91906129e0565b5083816001019081610e8f91906129e0565b50338160060160006101000a81548173ffffffffffffffffffffffffffffffffffffffff021916908373ffffffffffffffffffffffffffffffffffffffff160217905550828160070160006101000a81548173ffffffffffffffffffffffffffffffffffffffff021916908373ffffffffffffffffffffffffffffffffffffffff160217905550818160080160006101000a81548173ffffffffffffffffffffffffffffffffffffffff021916908373ffffffffffffffffffffffffffffffffffffffff16021790555060008160080160156101000a81548160ff02191690836005811115610f8157610f8061205c565b5b02179055507f80a27aec51a5ec43230eb53564e9855cb1334628a5c0baaf9a7a2f705b70e92c600154604051610fb7919061259d565b60405180910390a1505050505050565b6000602052806000526040600020600091509050806000018054610fea9061272b565b80601f01602080910402602001604051908101604052809291908181526020018280546110169061272b565b80156110635780601f1061103857610100808354040283529160200191611063565b820191906000526020600020905b81548152906001019060200180831161104657829003601f168201915b5050505050908060010180546110789061272b565b80601f01602080910402602001604051908101604052809291908181526020018280546110a49061272b565b80156110f15780601f106110c6576101008083540402835291602001916110f1565b820191906000526020600020905b8154815290600101906020018083116110d457829003601f168201915b5050505050908060020180546111069061272b565b80601f01602080910402602001604051908101604052809291908181526020018280546111329061272b565b801561117f5780601f106111545761010080835404028352916020019161117f565b820191906000526020600020905b81548152906001019060200180831161116257829003601f168201915b5050505050908060030180546111949061272b565b80601f01602080910402602001604051908101604052809291908181526020018280546111c09061272b565b801561120d5780601f106111e25761010080835404028352916020019161120d565b820191906000526020600020905b8154815290600101906020018083116111f057829003601f168201915b5050505050908060040160009054906101000a900473ffffffffffffffffffffffffffffffffffffffff16908060050160009054906101000a900473ffffffffffffffffffffffffffffffffffffffff16908060060160009054906101000a900473ffffffffffffffffffffffffffffffffffffffff16908060070160009054906101000a900473ffffffffffffffffffffffffffffffffffffffff16908060080160009054906101000a900473ffffffffffffffffffffffffffffffffffffffff16908060080160149054906101000a900460ff16908060080160159054906101000a900460ff16908060090180546113069061272b565b80601f01602080910402602001604051908101604052809291908181526020018280546113329061272b565b801561137f5780601f106113545761010080835404028352916020019161137f565b820191906000526020600020905b81548152906001019060200180831161136257829003601f168201915b505050505090508c565b600080600083815260200190815260200160002090508060060160009054906101000a900473ffffffffffffffffffffffffffffffffffffffff1673ffffffffffffffffffffffffffffffffffffffff163373ffffffffffffffffffffffffffffffffffffffff16148061144c57508060070160009054906101000a900473ffffffffffffffffffffffffffffffffffffffff1673ffffffffffffffffffffffffffffffffffffffff163373ffffffffffffffffffffffffffffffffffffffff16145b61148b576040517f08c379a0000000000000000000000000000000000000000000000000000000008152600401611482906127a8565b60405180910390fd5b6000600581111561149f5761149e61205c565b5b8160080160159054906101000a900460ff1660058111156114c3576114c261205c565b5b14611503576040517f08c379a00000000000000000000000000000000000000000000000000000000081526004016114fa90612814565b60405180910390fd5b60018160080160156101000a81548160ff0219169083600581111561152b5761152a61205c565b5b02179055507f6041f9d8afd08f868c84c410d8277bc0413acc3357dd18459b9a726dcbbca5a48260405161155f919061259d565b60405180910390a15050565b6001600081548092919061157e90612b74565b9190505550600080600060015481526020019081526020016000209050888160000190816115ac91906129e0565b50878160010190816115be91906129e0565b50868160020190816115d091906129e0565b50858160030190816115e291906129e0565b50848160040160006101000a81548173ffffffffffffffffffffffffffffffffffffffff021916908373ffffffffffffffffffffffffffffffffffffffff160217905550838160050160006101000a81548173ffffffffffffffffffffffffffffffffffffffff021916908373ffffffffffffffffffffffffffffffffffffffff160217905550338160060160006101000a81548173ffffffffffffffffffffffffffffffffffffffff021916908373ffffffffffffffffffffffffffffffffffffffff160217905550828160070160006101000a81548173ffffffffffffffffffffffffffffffffffffffff021916908373ffffffffffffffffffffffffffffffffffffffff160217905550818160080160006101000a81548173ffffffffffffffffffffffffffffffffffffffff021916908373ffffffffffffffffffffffffffffffffffffffff16021790555060008160080160156101000a81548160ff0219169083600581111561175a5761175961205c565b5b02179055507f0e0ca4df87d7446ca07598d6632cba6b98d58a257e7dfc0a0fa5423756edf1ef60015433604051611792929190612cba565b60405180910390a1505050505050505050565b60015481565b600080600083815260200190815260200160002090508060070160009054906101000a900473ffffffffffffffffffffffffffffffffffffffff1673ffffffffffffffffffffffffffffffffffffffff163373ffffffffffffffffffffffffffffffffffffffff1614611853576040517f08c379a000000000000000000000000000000000000000000000000000000000815260040161184a906127a8565b60405180910390fd5b600260058111156118675761186661205c565b5b8160080160159054906101000a900460ff16600581111561188b5761188a61205c565b5b146118cb576040517f08c379a00000000000000000000000000000000000000000000000000000000081526004016118c290612814565b60405180910390fd5b60038160080160156101000a81548160ff021916908360058111156118f3576118f261205c565b5b02179055507fb38ad34cd662cdc85d2f4726f158113d43072434f3f9f9a4bb60d7ee6685f17b82604051611927919061259d565b60405180910390a15050565b600080600083815260200190815260200160002090508060060160009054906101000a900473ffffffffffffffffffffffffffffffffffffffff1673ffffffffffffffffffffffffffffffffffffffff163373ffffffffffffffffffffffffffffffffffffffff1614806119f657508060070160009054906101000a900473ffffffffffffffffffffffffffffffffffffffff1673ffffffffffffffffffffffffffffffffffffffff163373ffffffffffffffffffffffffffffffffffffffff16145b611a35576040517f08c379a0000000000000000000000000000000000000000000000000000000008152600401611a2c906127a8565b60405180910390fd5b60036005811115611a4957611a4861205c565b5b8160080160159054906101000a900460ff166005811115611a6d57611a6c61205c565b5b14611aad576040517f08c379a0000000000000000000000000000000000000000000000000000000008152600401611aa490612814565b60405180910390fd5b60048160080160156101000a81548160ff02191690836005811115611ad557611ad461205c565b5b02179055507ff2521007b00a18172d8c4088aeb49433fa7047334e5a495d8f2945b2004deffd82604051611b09919061259d565b60405180910390a15050565b60405180610180016040528060608152602001606081526020016060815260200160608152602001600073ffffffffffffffffffffffffffffffffffffffff168152602001600073ffffffffffffffffffffffffffffffffffffffff168152602001600073ffffffffffffffffffffffffffffffffffffffff168152602001600073ffffffffffffffffffffffffffffffffffffffff168152602001600073ffffffffffffffffffffffffffffffffffffffff16815260200160001515815260200160006005811115611beb57611bea61205c565b5b8152602001606081525090565b6000604051905090565b600080fd5b600080fd5b6000819050919050565b611c1f81611c0c565b8114611c2a57600080fd5b50565b600081359050611c3c81611c16565b92915050565b600073ffffffffffffffffffffffffffffffffffffffff82169050919050565b6000611c6d82611c42565b9050919050565b611c7d81611c62565b8114611c8857600080fd5b50565b600081359050611c9a81611c74565b92915050565b60008060408385031215611cb757611cb6611c02565b5b6000611cc585828601611c2d565b9250506020611cd685828601611c8b565b9150509250929050565b600060208284031215611cf657611cf5611c02565b5b6000611d0484828501611c2d565b91505092915050565b600081519050919050565b600082825260208201905092915050565b60005b83811015611d47578082015181840152602081019050611d2c565b60008484015250505050565b6000601f19601f8301169050919050565b6000611d6f82611d0d565b611d798185611d18565b9350611d89818560208601611d29565b611d9281611d53565b840191505092915050565b60006020820190508181036000830152611db78184611d64565b905092915050565b60008115159050919050565b611dd481611dbf565b8114611ddf57600080fd5b50565b600081359050611df181611dcb565b92915050565b60008060408385031215611e0e57611e0d611c02565b5b6000611e1c85828601611c2d565b9250506020611e2d85828601611de2565b9150509250929050565b600080fd5b600080fd5b7f4e487b7100000000000000000000000000000000000000000000000000000000600052604160045260246000fd5b611e7982611d53565b810181811067ffffffffffffffff82111715611e9857611e97611e41565b5b80604052505050565b6000611eab611bf8565b9050611eb78282611e70565b919050565b600067ffffffffffffffff821115611ed757611ed6611e41565b5b611ee082611d53565b9050602081019050919050565b82818337600083830152505050565b6000611f0f611f0a84611ebc565b611ea1565b905082815260208101848484011115611f2b57611f2a611e3c565b5b611f36848285611eed565b509392505050565b600082601f830112611f5357611f52611e37565b5b8135611f63848260208601611efc565b91505092915050565b60008060408385031215611f8357611f82611c02565b5b6000611f9185828601611c2d565b925050602083013567ffffffffffffffff811115611fb257611fb1611c07565b5b611fbe85828601611f3e565b9150509250929050565b600081519050919050565b600082825260208201905092915050565b6000819050602082019050919050565b600082825260208201905092915050565b600061201082611d0d565b61201a8185611ff4565b935061202a818560208601611d29565b61203381611d53565b840191505092915050565b61204781611c62565b82525050565b61205681611dbf565b82525050565b7f4e487b7100000000000000000000000000000000000000000000000000000000600052602160045260246000fd5b6006811061209c5761209b61205c565b5b50565b60008190506120ad8261208b565b919050565b60006120bd8261209f565b9050919050565b6120cd816120b2565b82525050565b60006101808301600083015184820360008601526120f18282612005565b9150506020830151848203602086015261210b8282612005565b915050604083015184820360408601526121258282612005565b9150506060830151848203606086015261213f8282612005565b9150506080830151612154608086018261203e565b5060a083015161216760a086018261203e565b5060c083015161217a60c086018261203e565b5060e083015161218d60e086018261203e565b506101008301516121a261010086018261203e565b506101208301516121b761012086018261204d565b506101408301516121cc6101408601826120c4565b506101608301518482036101608601526121e68282612005565b9150508091505092915050565b60006121ff83836120d3565b905092915050565b6000602082019050919050565b600061221f82611fc8565b6122298185611fd3565b93508360208202850161223b85611fe4565b8060005b85811015612277578484038952815161225885826121f3565b945061226383612207565b925060208a0199505060018101905061223f565b50829750879550505050505092915050565b600060208201905081810360008301526122a38184612214565b905092915050565b600080600080600060a086880312156122c7576122c6611c02565b5b60006122d588828901611c2d565b955050602086013567ffffffffffffffff8111156122f6576122f5611c07565b5b61230288828901611f3e565b945050604086013567ffffffffffffffff81111561232357612322611c07565b5b61232f88828901611f3e565b935050606061234088828901611c8b565b925050608061235188828901611c8b565b9150509295509295909350565b61236781611c62565b82525050565b61237681611dbf565b82525050565b612385816120b2565b82525050565b60006101808201905081810360008301526123a6818f611d64565b905081810360208301526123ba818e611d64565b905081810360408301526123ce818d611d64565b905081810360608301526123e2818c611d64565b90506123f1608083018b61235e565b6123fe60a083018a61235e565b61240b60c083018961235e565b61241860e083018861235e565b61242661010083018761235e565b61243461012083018661236d565b61244261014083018561237c565b8181036101608301526124558184611d64565b90509d9c50505050505050505050505050565b600080600080600080600080610100898b03121561248957612488611c02565b5b600089013567ffffffffffffffff8111156124a7576124a6611c07565b5b6124b38b828c01611f3e565b985050602089013567ffffffffffffffff8111156124d4576124d3611c07565b5b6124e08b828c01611f3e565b975050604089013567ffffffffffffffff81111561250157612500611c07565b5b61250d8b828c01611f3e565b965050606089013567ffffffffffffffff81111561252e5761252d611c07565b5b61253a8b828c01611f3e565b955050608061254b8b828c01611c8b565b94505060a061255c8b828c01611c8b565b93505060c061256d8b828c01611c8b565b92505060e061257e8b828c01611c8b565b9150509295985092959890939650565b61259781611c0c565b82525050565b60006020820190506125b2600083018461258e565b92915050565b7f536869706d656e74206e6f742072656163686564207965740000000000000000600082015250565b60006125ee601883611d18565b91506125f9826125b8565b602082019050919050565b6000602082019050818103600083015261261d816125e1565b9050919050565b7f496e76616c696420726563656976657200000000000000000000000000000000600082015250565b600061265a601083611d18565b915061266582612624565b602082019050919050565b600060208201905081810360008301526126898161264d565b9050919050565b7f436c61696d204e6f7420616c6c6f776564000000000000000000000000000000600082015250565b60006126c6601183611d18565b91506126d182612690565b602082019050919050565b600060208201905081810360008301526126f5816126b9565b9050919050565b7f4e487b7100000000000000000000000000000000000000000000000000000000600052602260045260246000fd5b6000600282049050600182168061274357607f821691505b602082108103612756576127556126fc565b5b50919050565b7f556e617574686f72697a65640000000000000000000000000000000000000000600082015250565b6000612792600c83611d18565b915061279d8261275c565b602082019050919050565b600060208201905081810360008301526127c181612785565b9050919050565b7f496e76616c696420737461746500000000000000000000000000000000000000600082015250565b60006127fe600d83611d18565b9150612809826127c8565b602082019050919050565b6000602082019050818103600083015261282d816127f1565b9050919050565b60008190508160005260206000209050919050565b60006020601f8301049050919050565b600082821b905092915050565b6000600883026128967fffffffffffffffffffffffffffffffffffffffffffffffffffffffffffffffff82612859565b6128a08683612859565b95508019841693508086168417925050509392505050565b6000819050919050565b60006128dd6128d86128d384611c0c565b6128b8565b611c0c565b9050919050565b6000819050919050565b6128f7836128c2565b61290b612903826128e4565b848454612866565b825550505050565b600090565b612920612913565b61292b8184846128ee565b505050565b5b8181101561294f57612944600082612918565b600181019050612931565b5050565b601f8211156129945761296581612834565b61296e84612849565b8101602085101561297d578190505b61299161298985612849565b830182612930565b50505b505050565b600082821c905092915050565b60006129b760001984600802612999565b1980831691505092915050565b60006129d083836129a6565b9150826002028217905092915050565b6129e982611d0d565b67ffffffffffffffff811115612a0257612a01611e41565b5b612a0c825461272b565b612a17828285612953565b600060209050601f831160018114612a4a5760008415612a38578287015190505b612a4285826129c4565b865550612aaa565b601f198416612a5886612834565b60005b82811015612a8057848901518255600182019150602085019450602081019050612a5b565b86831015612a9d5784890151612a99601f8916826129a6565b8355505b6001600288020188555050505b505050505050565b6000604082019050612ac7600083018561258e565b8181036020830152612ad98184611d64565b90509392505050565b7f4e487b7100000000000000000000000000000000000000000000000000000000600052601160045260246000fd5b6000612b1c82611c0c565b9150612b2783611c0c565b9250828203905081811115612b3f57612b3e612ae2565b5b92915050565b7f4e487b7100000000000000000000000000000000000000000000000000000000600052603260045260246000fd5b6000612b7f82611c0c565b91507fffffffffffffffffffffffffffffffffffffffffffffffffffffffffffffffff8203612bb157612bb0612ae2565b5b600182019050919050565b7f496e76616c696420557365720000000000000000000000000000000000000000600082015250565b6000612bf2600c83611d18565b9150612bfd82612bbc565b602082019050919050565b60006020820190508181036000830152612c2181612be5565b9050919050565b7f43616e6e6f7420466f727761726420746865207061636b61676520736f6d656f60008201527f6e6520686176652073746f6c656e206974000000000000000000000000000000602082015250565b6000612c84603183611d18565b9150612c8f82612c28565b604082019050919050565b60006020820190508181036000830152612cb381612c77565b9050919050565b6000604082019050612ccf600083018561258e565b612cdc602083018461235e565b939250505056fea2646970667358221220364a084287b0677261f5d0780ee0d9f8011d0c5630df62f6dcf9f34b95bf4d5d64736f6c63430008120033",
  "immutableReferences": {},
  "source": "// SPDX-License-Identifier: MIT\r\n\r\npragma solidity ^0.8.0;\r\n\r\ncontract ContainerSC {\r\n\r\n    enum ContainerState {\r\n        Created,\r\n        DocumentsVerified,\r\n        ShipmentInProgress,\r\n        ShipmentDelivered,\r\n        Completed,\r\n        Claim\r\n    }\r\n\r\n    struct Container {\r\n        string origin;\r\n        string destination;\r\n        string size;\r\n        string content;\r\n        address sender;\r\n        address receiver;\r\n        address agent;\r\n        address receiverAgent;\r\n        address transporter;\r\n        bool Multimodal;\r\n        ContainerState state;\r\n        string IPFShash;\r\n    }\r\n\r\n    mapping(uint256 => Container) public containers;\r\n    uint256 public containerCount;\r\n\r\n    event ShipmentRequested(uint256 containerId, address sender);\r\n    event ShipmentUpdated(uint256 contianerId);\r\n    event DocumentsVerified(uint256 containerId);\r\n    event ShipmentCreated(uint256 containerId);\r\n    event ShipmentDelivered(uint256 containerId);\r\n    event ShipmentCompleted(uint256 containerId);\r\n    event ShipmentClaimed(uint256 containerId);\r\n    event DocumentUploaded(uint256 containerId, string ipfsHash);\r\n\r\n    function requestShipment(\r\n        string memory _origin,\r\n        string memory _destination,\r\n        string memory _size,\r\n        string memory _content,\r\n        address _sender,\r\n        address _receiver,\r\n        address _receiverAgent,\r\n        address _transporter\r\n    ) external {\r\n        containerCount++;\r\n        Container storage newContainer = containers[containerCount];\r\n        newContainer.origin = _origin;\r\n        newContainer.destination = _destination;\r\n        newContainer.size = _size;\r\n        newContainer.content = _content;\r\n        newContainer.sender = _sender;\r\n        newContainer.receiver = _receiver;\r\n        newContainer.agent = msg.sender;\r\n        newContainer.receiverAgent = _receiverAgent;\r\n        newContainer.transporter = _transporter;\r\n        newContainer.state = ContainerState.Created;\r\n        \r\n        emit ShipmentRequested(containerCount, msg.sender);\r\n    }\r\n\r\n    function updateShipment(\r\n        uint256 _containerId,\r\n        string memory _origin,\r\n        string memory _destination,\r\n        address _receiverAgent,\r\n        address _transporter\r\n    ) external {\r\n        Container storage updateContainer = containers[_containerId];\r\n        require(msg.sender == updateContainer.agent,\"Invalid User\");\r\n        require(updateContainer.state == ContainerState.Completed,\"Cannot Forward the package someone have stolen it\");\r\n        updateContainer.origin = _origin;\r\n        updateContainer.destination = _destination;\r\n        updateContainer.agent = msg.sender;\r\n        updateContainer.receiverAgent = _receiverAgent;\r\n        updateContainer.transporter = _transporter;\r\n        updateContainer.state = ContainerState.Created;\r\n        \r\n        emit ShipmentUpdated(containerCount);\r\n    }\r\n\r\n    function verifyDocuments(uint256 _containerId) external {\r\n        Container storage container = containers[_containerId];\r\n        require(msg.sender == container.agent || msg.sender == container.receiverAgent, \"Unauthorized\");\r\n        require(container.state == ContainerState.Created, \"Invalid state\");\r\n        \r\n        container.state = ContainerState.DocumentsVerified;\r\n        emit DocumentsVerified(_containerId);\r\n    }\r\n\r\n    function createShipment(uint256 _containerId,bool _multimodal) external {\r\n        Container storage container = containers[_containerId];\r\n        require(msg.sender == container.agent, \"Unauthorized\");\r\n        require(container.state == ContainerState.DocumentsVerified, \"Invalid state\");\r\n\r\n        container.Multimodal = _multimodal;        \r\n        container.state = ContainerState.ShipmentInProgress;\r\n        emit ShipmentCreated(_containerId);\r\n    }\r\n\r\n    function deliverShipment(uint256 _containerId) external {\r\n        Container storage container = containers[_containerId];\r\n        require(msg.sender == container.receiverAgent, \"Unauthorized\");\r\n        require(container.state == ContainerState.ShipmentInProgress, \"Invalid state\");\r\n        \r\n        container.state = ContainerState.ShipmentDelivered;\r\n        emit ShipmentDelivered(_containerId);\r\n    }\r\n\r\n    function completeShipment(uint256 _containerId) external {\r\n        Container storage container = containers[_containerId];\r\n        require(msg.sender == container.agent || msg.sender == container.receiverAgent, \"Unauthorized\");\r\n        require(container.state == ContainerState.ShipmentDelivered, \"Invalid state\");\r\n        \r\n        container.state = ContainerState.Completed;\r\n        emit ShipmentCompleted(_containerId);\r\n    }\r\n\r\n    function claimShipment(uint256 _containerId , address _receiver) external {\r\n        Container storage container = containers[_containerId];\r\n        require(container.state == ContainerState.Completed, \"Shipment not reached yet\");\r\n        require(container.receiver == _receiver, \"Invalid receiver\");\r\n        require(msg.sender == container.receiverAgent,\"Claim Not allowed\");\r\n\r\n        container.state = ContainerState.Claim;\r\n        emit ShipmentClaimed(_containerId);\r\n        \r\n    }\r\n\r\n    function uploadDocumentToIPFS(uint256 _containerId, string memory _hashIPFS) external {\r\n        Container storage container = containers[_containerId];\r\n        require(msg.sender == container.agent, \"Unauthorized\");\r\n        \r\n        container.IPFShash = _hashIPFS;\r\n        emit DocumentUploaded(_containerId, _hashIPFS);\r\n    }\r\n\r\n    function getDocumentFromIPFS(uint256 _containerId) external view returns (string memory) {\r\n        return containers[_containerId].IPFShash;\r\n    }\r\n\r\n    function getAllContainers() external view returns (Container[] memory) {\r\n        Container[] memory allContainers = new Container[](containerCount);\r\n        for (uint256 i = 1; i <= containerCount; i++) {\r\n            allContainers[i - 1] = containers[i];\r\n        }\r\n        return allContainers;\r\n    }\r\n}\r\n",
  "sourcePath": "D:\\2020 Courses\\Semester 8\\chain\\backend\\contracts\\ContainerSC.sol",
  "compiler": {
    "name": "solc",
    "version": "0.8.18+commit.87f61d96.Emscripten.clang"
  },
  "schemaVersion": "3.4.16",
  "updatedAt": "2024-05-06T12:08:34.776Z",
  "networkType": "ethereum",
  "devdoc": {
    "kind": "dev",
    "methods": {},
    "version": 1
  },
  "userdoc": {
    "kind": "user",
    "methods": {},
    "version": 1
  }
}