{
  "contractName": "ContainerSC",
  "abi": [
    {
      "anonymous": false,
      "inputs": [
        {
          "indexed": false,
          "internalType": "uint256",
          "name": "containerId",
          "type": "uint256"
        },
        {
          "indexed": false,
          "internalType": "string",
          "name": "ipfsHash",
          "type": "string"
        }
      ],
      "name": "DocumentUploaded",
      "type": "event"
    },
    {
      "anonymous": false,
      "inputs": [
        {
          "indexed": false,
          "internalType": "uint256",
          "name": "containerId",
          "type": "uint256"
        }
      ],
      "name": "DocumentsVerified",
      "type": "event"
    },
    {
      "anonymous": false,
      "inputs": [
        {
          "indexed": false,
          "internalType": "uint256",
          "name": "containerId",
          "type": "uint256"
        }
      ],
      "name": "ShipmentCompleted",
      "type": "event"
    },
    {
      "anonymous": false,
      "inputs": [
        {
          "indexed": false,
          "internalType": "uint256",
          "name": "containerId",
          "type": "uint256"
        }
      ],
      "name": "ShipmentCreated",
      "type": "event"
    },
    {
      "anonymous": false,
      "inputs": [
        {
          "indexed": false,
          "internalType": "uint256",
          "name": "containerId",
          "type": "uint256"
        }
      ],
      "name": "ShipmentDelivered",
      "type": "event"
    },
    {
      "anonymous": false,
      "inputs": [
        {
          "indexed": false,
          "internalType": "uint256",
          "name": "containerId",
          "type": "uint256"
        },
        {
          "indexed": false,
          "internalType": "address",
          "name": "sender",
          "type": "address"
        }
      ],
      "name": "ShipmentRequested",
      "type": "event"
    },
    {
      "inputs": [],
      "name": "containerCount",
      "outputs": [
        {
          "internalType": "uint256",
          "name": "",
          "type": "uint256"
        }
      ],
      "stateMutability": "view",
      "type": "function",
      "constant": true
    },
    {
      "inputs": [
        {
          "internalType": "uint256",
          "name": "",
          "type": "uint256"
        }
      ],
      "name": "containers",
      "outputs": [
        {
          "internalType": "string",
          "name": "origin",
          "type": "string"
        },
        {
          "internalType": "string",
          "name": "destination",
          "type": "string"
        },
        {
          "internalType": "string",
          "name": "size",
          "type": "string"
        },
        {
          "internalType": "string",
          "name": "content",
          "type": "string"
        },
        {
          "internalType": "address",
          "name": "sender",
          "type": "address"
        },
        {
          "internalType": "address",
          "name": "receiver",
          "type": "address"
        },
        {
          "internalType": "address",
          "name": "agent",
          "type": "address"
        },
        {
          "internalType": "address",
          "name": "receiverAgent",
          "type": "address"
        },
        {
          "internalType": "bool",
          "name": "Multimodal",
          "type": "bool"
        },
        {
          "internalType": "enum ContainerSC.ContainerState",
          "name": "state",
          "type": "uint8"
        }
      ],
      "stateMutability": "view",
      "type": "function",
      "constant": true
    },
    {
      "inputs": [
        {
          "internalType": "string",
          "name": "_origin",
          "type": "string"
        },
        {
          "internalType": "string",
          "name": "_destination",
          "type": "string"
        },
        {
          "internalType": "string",
          "name": "_size",
          "type": "string"
        },
        {
          "internalType": "string",
          "name": "_content",
          "type": "string"
        },
        {
          "internalType": "address",
          "name": "_sender",
          "type": "address"
        },
        {
          "internalType": "address",
          "name": "_receiver",
          "type": "address"
        },
        {
          "internalType": "address",
          "name": "_receiverAgent",
          "type": "address"
        },
        {
          "internalType": "bool",
          "name": "_Multimodal",
          "type": "bool"
        }
      ],
      "name": "requestShipment",
      "outputs": [],
      "stateMutability": "nonpayable",
      "type": "function"
    },
    {
      "inputs": [
        {
          "internalType": "uint256",
          "name": "_containerId",
          "type": "uint256"
        }
      ],
      "name": "verifyDocuments",
      "outputs": [],
      "stateMutability": "nonpayable",
      "type": "function"
    },
    {
      "inputs": [
        {
          "internalType": "uint256",
          "name": "_containerId",
          "type": "uint256"
        }
      ],
      "name": "createShipment",
      "outputs": [],
      "stateMutability": "nonpayable",
      "type": "function"
    },
    {
      "inputs": [
        {
          "internalType": "uint256",
          "name": "_containerId",
          "type": "uint256"
        }
      ],
      "name": "deliverShipment",
      "outputs": [],
      "stateMutability": "nonpayable",
      "type": "function"
    },
    {
      "inputs": [
        {
          "internalType": "uint256",
          "name": "_containerId",
          "type": "uint256"
        }
      ],
      "name": "completeShipment",
      "outputs": [],
      "stateMutability": "nonpayable",
      "type": "function"
    },
    {
      "inputs": [
        {
          "internalType": "uint256",
          "name": "_containerId",
          "type": "uint256"
        },
        {
          "internalType": "string",
          "name": "_hashIPFS",
          "type": "string"
        }
      ],
      "name": "uploadDocumentToIPFS",
      "outputs": [],
      "stateMutability": "nonpayable",
      "type": "function"
    },
    {
      "inputs": [
        {
          "internalType": "uint256",
          "name": "_containerId",
          "type": "uint256"
        },
        {
          "internalType": "uint256",
          "name": "_index",
          "type": "uint256"
        }
      ],
      "name": "getDocumentFromIPFS",
      "outputs": [
        {
          "internalType": "string",
          "name": "",
          "type": "string"
        }
      ],
      "stateMutability": "view",
      "type": "function",
      "constant": true
    },
    {
      "inputs": [],
      "name": "getAllContainers",
      "outputs": [
        {
          "components": [
            {
              "internalType": "string",
              "name": "origin",
              "type": "string"
            },
            {
              "internalType": "string",
              "name": "destination",
              "type": "string"
            },
            {
              "internalType": "string",
              "name": "size",
              "type": "string"
            },
            {
              "internalType": "string",
              "name": "content",
              "type": "string"
            },
            {
              "internalType": "address",
              "name": "sender",
              "type": "address"
            },
            {
              "internalType": "address",
              "name": "receiver",
              "type": "address"
            },
            {
              "internalType": "address",
              "name": "agent",
              "type": "address"
            },
            {
              "internalType": "address",
              "name": "receiverAgent",
              "type": "address"
            },
            {
              "internalType": "bool",
              "name": "Multimodal",
              "type": "bool"
            },
            {
              "internalType": "enum ContainerSC.ContainerState",
              "name": "state",
              "type": "uint8"
            },
            {
              "internalType": "string[]",
              "name": "IPFShash",
              "type": "string[]"
            }
          ],
          "internalType": "struct ContainerSC.Container[]",
          "name": "",
          "type": "tuple[]"
        }
      ],
      "stateMutability": "view",
      "type": "function",
      "constant": true
    }
  ],
  "bytecode": "0x608060405234801561001057600080fd5b506124a4806100206000396000f3fe608060405234801561001057600080fd5b506004361061009e5760003560e01c8063b49a750911610066578063b49a750914610145578063be73fd4d1461017e578063d38fbd421461019a578063e0d51664146101b8578063f15456b5146101d45761009e565b80631eecc0e5146100a357806369a5e0a7146100d35780636c2e27d2146100ef5780639b6389c31461010b5780639e4d285514610129575b600080fd5b6100bd60048036038101906100b8919061167a565b6101f0565b6040516100ca919061174a565b60405180910390f35b6100ed60048036038101906100e8919061176c565b6102b4565b005b610109600480360381019061010491906118ce565b61043c565b005b610113610559565b6040516101209190611cd6565b60405180910390f35b610143600480360381019061013e9190611d50565b610af7565b005b61015f600480360381019061015a919061176c565b610d0a565b6040516101759a99989796959493929190611ea3565b60405180910390f35b6101986004803603810190610193919061176c565b611018565b005b6101a26111fa565b6040516101af9190611f6a565b60405180910390f35b6101d260048036038101906101cd919061176c565b611200565b005b6101ee60048036038101906101e9919061176c565b611388565b005b6060600080848152602001908152602001600020600801828154811061021957610218611f85565b5b90600052602060002001805461022e90611fe3565b80601f016020809104026020016040519081016040528092919081815260200182805461025a90611fe3565b80156102a75780601f1061027c576101008083540402835291602001916102a7565b820191906000526020600020905b81548152906001019060200180831161028a57829003601f168201915b5050505050905092915050565b600080600083815260200190815260200160002090508060060160009054906101000a900473ffffffffffffffffffffffffffffffffffffffff1673ffffffffffffffffffffffffffffffffffffffff163373ffffffffffffffffffffffffffffffffffffffff161461035c576040517f08c379a000000000000000000000000000000000000000000000000000000000815260040161035390612060565b60405180910390fd5b600160048111156103705761036f6119fc565b5b8160070160159054906101000a900460ff166004811115610394576103936119fc565b5b146103d4576040517f08c379a00000000000000000000000000000000000000000000000000000000081526004016103cb906120cc565b60405180910390fd5b60028160070160156101000a81548160ff021916908360048111156103fc576103fb6119fc565b5b02179055507fbaeab34bd61553e872f8886fa96319a779d7f547b1d5e46971046f9e909617fc826040516104309190611f6a565b60405180910390a15050565b600080600084815260200190815260200160002090508060060160009054906101000a900473ffffffffffffffffffffffffffffffffffffffff1673ffffffffffffffffffffffffffffffffffffffff163373ffffffffffffffffffffffffffffffffffffffff16146104e4576040517f08c379a00000000000000000000000000000000000000000000000000000000081526004016104db90612060565b60405180910390fd5b806008018290806001815401808255809150506001900390600052602060002001600090919091909150908161051a9190612298565b507f7e70084d84488f1d46902bb7fa3b765328c23f5713ec1e5d426bc7c9b2e9e104838360405161054c92919061236a565b60405180910390a1505050565b6060600060015467ffffffffffffffff811115610579576105786117a3565b5b6040519080825280602002602001820160405280156105b257816020015b61059f61156a565b8152602001906001900390816105975790505b5090506000600190505b6001548111610aef57600080828152602001908152602001600020604051806101600160405290816000820180546105f390611fe3565b80601f016020809104026020016040519081016040528092919081815260200182805461061f90611fe3565b801561066c5780601f106106415761010080835404028352916020019161066c565b820191906000526020600020905b81548152906001019060200180831161064f57829003601f168201915b5050505050815260200160018201805461068590611fe3565b80601f01602080910402602001604051908101604052809291908181526020018280546106b190611fe3565b80156106fe5780601f106106d3576101008083540402835291602001916106fe565b820191906000526020600020905b8154815290600101906020018083116106e157829003601f168201915b5050505050815260200160028201805461071790611fe3565b80601f016020809104026020016040519081016040528092919081815260200182805461074390611fe3565b80156107905780601f1061076557610100808354040283529160200191610790565b820191906000526020600020905b81548152906001019060200180831161077357829003601f168201915b505050505081526020016003820180546107a990611fe3565b80601f01602080910402602001604051908101604052809291908181526020018280546107d590611fe3565b80156108225780601f106107f757610100808354040283529160200191610822565b820191906000526020600020905b81548152906001019060200180831161080557829003601f168201915b505050505081526020016004820160009054906101000a900473ffffffffffffffffffffffffffffffffffffffff1673ffffffffffffffffffffffffffffffffffffffff1673ffffffffffffffffffffffffffffffffffffffff1681526020016005820160009054906101000a900473ffffffffffffffffffffffffffffffffffffffff1673ffffffffffffffffffffffffffffffffffffffff1673ffffffffffffffffffffffffffffffffffffffff1681526020016006820160009054906101000a900473ffffffffffffffffffffffffffffffffffffffff1673ffffffffffffffffffffffffffffffffffffffff1673ffffffffffffffffffffffffffffffffffffffff1681526020016007820160009054906101000a900473ffffffffffffffffffffffffffffffffffffffff1673ffffffffffffffffffffffffffffffffffffffff1673ffffffffffffffffffffffffffffffffffffffff1681526020016007820160149054906101000a900460ff161515151581526020016007820160159054906101000a900460ff1660048111156109c3576109c26119fc565b5b60048111156109d5576109d46119fc565b5b815260200160088201805480602002602001604051908101604052809291908181526020016000905b82821015610aaa578382906000526020600020018054610a1d90611fe3565b80601f0160208091040260200160405190810160405280929190818152602001828054610a4990611fe3565b8015610a965780601f10610a6b57610100808354040283529160200191610a96565b820191906000526020600020905b815481529060010190602001808311610a7957829003601f168201915b5050505050815260200190600101906109fe565b505050508152505082600183610ac091906123c9565b81518110610ad157610ad0611f85565b5b60200260200101819052508080610ae7906123fd565b9150506105bc565b508091505090565b60016000815480929190610b0a906123fd565b919050555060008060006001548152602001908152602001600020905088816000019081610b389190612298565b5087816001019081610b4a9190612298565b5086816002019081610b5c9190612298565b5085816003019081610b6e9190612298565b50848160040160006101000a81548173ffffffffffffffffffffffffffffffffffffffff021916908373ffffffffffffffffffffffffffffffffffffffff160217905550838160050160006101000a81548173ffffffffffffffffffffffffffffffffffffffff021916908373ffffffffffffffffffffffffffffffffffffffff160217905550338160060160006101000a81548173ffffffffffffffffffffffffffffffffffffffff021916908373ffffffffffffffffffffffffffffffffffffffff160217905550828160070160006101000a81548173ffffffffffffffffffffffffffffffffffffffff021916908373ffffffffffffffffffffffffffffffffffffffff160217905550818160070160146101000a81548160ff02191690831515021790555060008160070160156101000a81548160ff02191690836004811115610cbf57610cbe6119fc565b5b02179055507f0e0ca4df87d7446ca07598d6632cba6b98d58a257e7dfc0a0fa5423756edf1ef60015433604051610cf7929190612445565b60405180910390a1505050505050505050565b6000602052806000526040600020600091509050806000018054610d2d90611fe3565b80601f0160208091040260200160405190810160405280929190818152602001828054610d5990611fe3565b8015610da65780601f10610d7b57610100808354040283529160200191610da6565b820191906000526020600020905b815481529060010190602001808311610d8957829003601f168201915b505050505090806001018054610dbb90611fe3565b80601f0160208091040260200160405190810160405280929190818152602001828054610de790611fe3565b8015610e345780601f10610e0957610100808354040283529160200191610e34565b820191906000526020600020905b815481529060010190602001808311610e1757829003601f168201915b505050505090806002018054610e4990611fe3565b80601f0160208091040260200160405190810160405280929190818152602001828054610e7590611fe3565b8015610ec25780601f10610e9757610100808354040283529160200191610ec2565b820191906000526020600020905b815481529060010190602001808311610ea557829003601f168201915b505050505090806003018054610ed790611fe3565b80601f0160208091040260200160405190810160405280929190818152602001828054610f0390611fe3565b8015610f505780601f10610f2557610100808354040283529160200191610f50565b820191906000526020600020905b815481529060010190602001808311610f3357829003601f168201915b5050505050908060040160009054906101000a900473ffffffffffffffffffffffffffffffffffffffff16908060050160009054906101000a900473ffffffffffffffffffffffffffffffffffffffff16908060060160009054906101000a900473ffffffffffffffffffffffffffffffffffffffff16908060070160009054906101000a900473ffffffffffffffffffffffffffffffffffffffff16908060070160149054906101000a900460ff16908060070160159054906101000a900460ff1690508a565b600080600083815260200190815260200160002090508060060160009054906101000a900473ffffffffffffffffffffffffffffffffffffffff1673ffffffffffffffffffffffffffffffffffffffff163373ffffffffffffffffffffffffffffffffffffffff1614806110db57508060070160009054906101000a900473ffffffffffffffffffffffffffffffffffffffff1673ffffffffffffffffffffffffffffffffffffffff163373ffffffffffffffffffffffffffffffffffffffff16145b61111a576040517f08c379a000000000000000000000000000000000000000000000000000000000815260040161111190612060565b60405180910390fd5b6000600481111561112e5761112d6119fc565b5b8160070160159054906101000a900460ff166004811115611152576111516119fc565b5b14611192576040517f08c379a0000000000000000000000000000000000000000000000000000000008152600401611189906120cc565b60405180910390fd5b60018160070160156101000a81548160ff021916908360048111156111ba576111b96119fc565b5b02179055507f6041f9d8afd08f868c84c410d8277bc0413acc3357dd18459b9a726dcbbca5a4826040516111ee9190611f6a565b60405180910390a15050565b60015481565b600080600083815260200190815260200160002090508060070160009054906101000a900473ffffffffffffffffffffffffffffffffffffffff1673ffffffffffffffffffffffffffffffffffffffff163373ffffffffffffffffffffffffffffffffffffffff16146112a8576040517f08c379a000000000000000000000000000000000000000000000000000000000815260040161129f90612060565b60405180910390fd5b600260048111156112bc576112bb6119fc565b5b8160070160159054906101000a900460ff1660048111156112e0576112df6119fc565b5b14611320576040517f08c379a0000000000000000000000000000000000000000000000000000000008152600401611317906120cc565b60405180910390fd5b60038160070160156101000a81548160ff02191690836004811115611348576113476119fc565b5b02179055507fb38ad34cd662cdc85d2f4726f158113d43072434f3f9f9a4bb60d7ee6685f17b8260405161137c9190611f6a565b60405180910390a15050565b600080600083815260200190815260200160002090508060060160009054906101000a900473ffffffffffffffffffffffffffffffffffffffff1673ffffffffffffffffffffffffffffffffffffffff163373ffffffffffffffffffffffffffffffffffffffff16148061144b57508060070160009054906101000a900473ffffffffffffffffffffffffffffffffffffffff1673ffffffffffffffffffffffffffffffffffffffff163373ffffffffffffffffffffffffffffffffffffffff16145b61148a576040517f08c379a000000000000000000000000000000000000000000000000000000000815260040161148190612060565b60405180910390fd5b6003600481111561149e5761149d6119fc565b5b8160070160159054906101000a900460ff1660048111156114c2576114c16119fc565b5b14611502576040517f08c379a00000000000000000000000000000000000000000000000000000000081526004016114f9906120cc565b60405180910390fd5b60048160070160156101000a81548160ff0219169083600481111561152a576115296119fc565b5b02179055507ff2521007b00a18172d8c4088aeb49433fa7047334e5a495d8f2945b2004deffd8260405161155e9190611f6a565b60405180910390a15050565b60405180610160016040528060608152602001606081526020016060815260200160608152602001600073ffffffffffffffffffffffffffffffffffffffff168152602001600073ffffffffffffffffffffffffffffffffffffffff168152602001600073ffffffffffffffffffffffffffffffffffffffff168152602001600073ffffffffffffffffffffffffffffffffffffffff16815260200160001515815260200160006004811115611623576116226119fc565b5b8152602001606081525090565b6000604051905090565b600080fd5b600080fd5b6000819050919050565b61165781611644565b811461166257600080fd5b50565b6000813590506116748161164e565b92915050565b600080604083850312156116915761169061163a565b5b600061169f85828601611665565b92505060206116b085828601611665565b9150509250929050565b600081519050919050565b600082825260208201905092915050565b60005b838110156116f45780820151818401526020810190506116d9565b60008484015250505050565b6000601f19601f8301169050919050565b600061171c826116ba565b61172681856116c5565b93506117368185602086016116d6565b61173f81611700565b840191505092915050565b600060208201905081810360008301526117648184611711565b905092915050565b6000602082840312156117825761178161163a565b5b600061179084828501611665565b91505092915050565b600080fd5b600080fd5b7f4e487b7100000000000000000000000000000000000000000000000000000000600052604160045260246000fd5b6117db82611700565b810181811067ffffffffffffffff821117156117fa576117f96117a3565b5b80604052505050565b600061180d611630565b905061181982826117d2565b919050565b600067ffffffffffffffff821115611839576118386117a3565b5b61184282611700565b9050602081019050919050565b82818337600083830152505050565b600061187161186c8461181e565b611803565b90508281526020810184848401111561188d5761188c61179e565b5b61189884828561184f565b509392505050565b600082601f8301126118b5576118b4611799565b5b81356118c584826020860161185e565b91505092915050565b600080604083850312156118e5576118e461163a565b5b60006118f385828601611665565b925050602083013567ffffffffffffffff8111156119145761191361163f565b5b611920858286016118a0565b9150509250929050565b600081519050919050565b600082825260208201905092915050565b6000819050602082019050919050565b600082825260208201905092915050565b6000611972826116ba565b61197c8185611956565b935061198c8185602086016116d6565b61199581611700565b840191505092915050565b600073ffffffffffffffffffffffffffffffffffffffff82169050919050565b60006119cb826119a0565b9050919050565b6119db816119c0565b82525050565b60008115159050919050565b6119f6816119e1565b82525050565b7f4e487b7100000000000000000000000000000000000000000000000000000000600052602160045260246000fd5b60058110611a3c57611a3b6119fc565b5b50565b6000819050611a4d82611a2b565b919050565b6000611a5d82611a3f565b9050919050565b611a6d81611a52565b82525050565b600081519050919050565b600082825260208201905092915050565b6000819050602082019050919050565b6000611aab8383611967565b905092915050565b6000602082019050919050565b6000611acb82611a73565b611ad58185611a7e565b935083602082028501611ae785611a8f565b8060005b85811015611b235784840389528151611b048582611a9f565b9450611b0f83611ab3565b925060208a01995050600181019050611aeb565b50829750879550505050505092915050565b6000610160830160008301518482036000860152611b538282611967565b91505060208301518482036020860152611b6d8282611967565b91505060408301518482036040860152611b878282611967565b91505060608301518482036060860152611ba18282611967565b9150506080830151611bb660808601826119d2565b5060a0830151611bc960a08601826119d2565b5060c0830151611bdc60c08601826119d2565b5060e0830151611bef60e08601826119d2565b50610100830151611c046101008601826119ed565b50610120830151611c19610120860182611a64565b50610140830151848203610140860152611c338282611ac0565b9150508091505092915050565b6000611c4c8383611b35565b905092915050565b6000602082019050919050565b6000611c6c8261192a565b611c768185611935565b935083602082028501611c8885611946565b8060005b85811015611cc45784840389528151611ca58582611c40565b9450611cb083611c54565b925060208a01995050600181019050611c8c565b50829750879550505050505092915050565b60006020820190508181036000830152611cf08184611c61565b905092915050565b611d01816119c0565b8114611d0c57600080fd5b50565b600081359050611d1e81611cf8565b92915050565b611d2d816119e1565b8114611d3857600080fd5b50565b600081359050611d4a81611d24565b92915050565b600080600080600080600080610100898b031215611d7157611d7061163a565b5b600089013567ffffffffffffffff811115611d8f57611d8e61163f565b5b611d9b8b828c016118a0565b985050602089013567ffffffffffffffff811115611dbc57611dbb61163f565b5b611dc88b828c016118a0565b975050604089013567ffffffffffffffff811115611de957611de861163f565b5b611df58b828c016118a0565b965050606089013567ffffffffffffffff811115611e1657611e1561163f565b5b611e228b828c016118a0565b9550506080611e338b828c01611d0f565b94505060a0611e448b828c01611d0f565b93505060c0611e558b828c01611d0f565b92505060e0611e668b828c01611d3b565b9150509295985092959890939650565b611e7f816119c0565b82525050565b611e8e816119e1565b82525050565b611e9d81611a52565b82525050565b6000610140820190508181036000830152611ebe818d611711565b90508181036020830152611ed2818c611711565b90508181036040830152611ee6818b611711565b90508181036060830152611efa818a611711565b9050611f096080830189611e76565b611f1660a0830188611e76565b611f2360c0830187611e76565b611f3060e0830186611e76565b611f3e610100830185611e85565b611f4c610120830184611e94565b9b9a5050505050505050505050565b611f6481611644565b82525050565b6000602082019050611f7f6000830184611f5b565b92915050565b7f4e487b7100000000000000000000000000000000000000000000000000000000600052603260045260246000fd5b7f4e487b7100000000000000000000000000000000000000000000000000000000600052602260045260246000fd5b60006002820490506001821680611ffb57607f821691505b60208210810361200e5761200d611fb4565b5b50919050565b7f556e617574686f72697a65640000000000000000000000000000000000000000600082015250565b600061204a600c836116c5565b915061205582612014565b602082019050919050565b600060208201905081810360008301526120798161203d565b9050919050565b7f496e76616c696420737461746500000000000000000000000000000000000000600082015250565b60006120b6600d836116c5565b91506120c182612080565b602082019050919050565b600060208201905081810360008301526120e5816120a9565b9050919050565b60008190508160005260206000209050919050565b60006020601f8301049050919050565b600082821b905092915050565b60006008830261214e7fffffffffffffffffffffffffffffffffffffffffffffffffffffffffffffffff82612111565b6121588683612111565b95508019841693508086168417925050509392505050565b6000819050919050565b600061219561219061218b84611644565b612170565b611644565b9050919050565b6000819050919050565b6121af8361217a565b6121c36121bb8261219c565b84845461211e565b825550505050565b600090565b6121d86121cb565b6121e38184846121a6565b505050565b5b81811015612207576121fc6000826121d0565b6001810190506121e9565b5050565b601f82111561224c5761221d816120ec565b61222684612101565b81016020851015612235578190505b61224961224185612101565b8301826121e8565b50505b505050565b600082821c905092915050565b600061226f60001984600802612251565b1980831691505092915050565b6000612288838361225e565b9150826002028217905092915050565b6122a1826116ba565b67ffffffffffffffff8111156122ba576122b96117a3565b5b6122c48254611fe3565b6122cf82828561220b565b600060209050601f83116001811461230257600084156122f0578287015190505b6122fa858261227c565b865550612362565b601f198416612310866120ec565b60005b8281101561233857848901518255600182019150602085019450602081019050612313565b868310156123555784890151612351601f89168261225e565b8355505b6001600288020188555050505b505050505050565b600060408201905061237f6000830185611f5b565b81810360208301526123918184611711565b90509392505050565b7f4e487b7100000000000000000000000000000000000000000000000000000000600052601160045260246000fd5b60006123d482611644565b91506123df83611644565b92508282039050818111156123f7576123f661239a565b5b92915050565b600061240882611644565b91507fffffffffffffffffffffffffffffffffffffffffffffffffffffffffffffffff820361243a5761243961239a565b5b600182019050919050565b600060408201905061245a6000830185611f5b565b6124676020830184611e76565b939250505056fea2646970667358221220c641565a999065d04aea930a0015577e6cd54d44eda742e15dc106c95d1b3bb064736f6c63430008120033",
  "immutableReferences": {},
  "source": "// SPDX-License-Identifier: MIT\r\n\r\npragma solidity ^0.8.0;\r\n\r\ncontract ContainerSC {\r\n\r\n    enum ContainerState {\r\n        Created,\r\n        DocumentsVerified,\r\n        ShipmentInProgress,\r\n        ShipmentDelivered,\r\n        Completed\r\n    }\r\n\r\n    struct Container {\r\n        string origin;\r\n        string destination;\r\n        string size;\r\n        string content;\r\n        address sender;\r\n        address receiver;\r\n        address agent;\r\n        address receiverAgent;\r\n        bool Multimodal;\r\n        ContainerState state;\r\n        string[] IPFShash;\r\n    }\r\n\r\n    mapping(uint256 => Container) public containers;\r\n    uint256 public containerCount;\r\n\r\n    event ShipmentRequested(uint256 containerId, address sender);\r\n    event DocumentsVerified(uint256 containerId);\r\n    event ShipmentCreated(uint256 containerId);\r\n    event ShipmentDelivered(uint256 containerId);\r\n    event ShipmentCompleted(uint256 containerId);\r\n    event DocumentUploaded(uint256 containerId, string ipfsHash);\r\n\r\n    function requestShipment(\r\n        string memory _origin,\r\n        string memory _destination,\r\n        string memory _size,\r\n        string memory _content,\r\n        address _sender,\r\n        address _receiver,\r\n        address _receiverAgent,\r\n        bool _Multimodal\r\n    ) external {\r\n        containerCount++;\r\n        Container storage newContainer = containers[containerCount];\r\n        newContainer.origin = _origin;\r\n        newContainer.destination = _destination;\r\n        newContainer.size = _size;\r\n        newContainer.content = _content;\r\n        newContainer.sender = _sender;\r\n        newContainer.receiver = _receiver;\r\n        newContainer.agent = msg.sender;\r\n        newContainer.receiverAgent = _receiverAgent;\r\n        newContainer.Multimodal = _Multimodal;\r\n        newContainer.state = ContainerState.Created;\r\n        \r\n        emit ShipmentRequested(containerCount, msg.sender);\r\n    }\r\n\r\n    function verifyDocuments(uint256 _containerId) external {\r\n        Container storage container = containers[_containerId];\r\n        require(msg.sender == container.agent || msg.sender == container.receiverAgent, \"Unauthorized\");\r\n        require(container.state == ContainerState.Created, \"Invalid state\");\r\n        \r\n        container.state = ContainerState.DocumentsVerified;\r\n        emit DocumentsVerified(_containerId);\r\n    }\r\n\r\n    function createShipment(uint256 _containerId) external {\r\n        Container storage container = containers[_containerId];\r\n        require(msg.sender == container.agent, \"Unauthorized\");\r\n        require(container.state == ContainerState.DocumentsVerified, \"Invalid state\");\r\n        \r\n        container.state = ContainerState.ShipmentInProgress;\r\n        emit ShipmentCreated(_containerId);\r\n    }\r\n\r\n    function deliverShipment(uint256 _containerId) external {\r\n        Container storage container = containers[_containerId];\r\n        require(msg.sender == container.receiverAgent, \"Unauthorized\");\r\n        require(container.state == ContainerState.ShipmentInProgress, \"Invalid state\");\r\n        \r\n        container.state = ContainerState.ShipmentDelivered;\r\n        emit ShipmentDelivered(_containerId);\r\n    }\r\n\r\n    function completeShipment(uint256 _containerId) external {\r\n        Container storage container = containers[_containerId];\r\n        require(msg.sender == container.agent || msg.sender == container.receiverAgent, \"Unauthorized\");\r\n        require(container.state == ContainerState.ShipmentDelivered, \"Invalid state\");\r\n        \r\n        container.state = ContainerState.Completed;\r\n        emit ShipmentCompleted(_containerId);\r\n    }\r\n\r\n    function uploadDocumentToIPFS(uint256 _containerId, string memory _hashIPFS) external {\r\n        Container storage container = containers[_containerId];\r\n        require(msg.sender == container.agent, \"Unauthorized\");\r\n        \r\n        container.IPFShash.push(_hashIPFS);\r\n        emit DocumentUploaded(_containerId, _hashIPFS);\r\n    }\r\n\r\n    function getDocumentFromIPFS(uint256 _containerId, uint256 _index) external view returns (string memory) {\r\n        return containers[_containerId].IPFShash[_index];\r\n    }\r\n\r\n    function getAllContainers() external view returns (Container[] memory) {\r\n        Container[] memory allContainers = new Container[](containerCount);\r\n        for (uint256 i = 1; i <= containerCount; i++) {\r\n            allContainers[i - 1] = containers[i];\r\n        }\r\n        return allContainers;\r\n    }\r\n}\r\n\r\n\r\n// pragma solidity >0.8.0 <=0.9.0;\r\n\r\n// contract ContainerSC {\r\n    \r\n//     enum ContainerState {\r\n//         ExportCustomsClearanceReq,\r\n//         ExportCustomsCDocumentsApprv,\r\n//         ShipmentCreated,\r\n//         BoLIssued,\r\n//         CarrierRequested,\r\n//         TransshipmentPermitReq,\r\n//         ContainerHandedOff,\r\n//         ReadyForTransit,        \r\n//         InTransit,\r\n//         ImportCustomsCDocumentsApprv,\r\n//         Delivered\r\n//     }\r\n\r\n//     struct Container {\r\n//         string origin;\r\n//         string destination;\r\n//         string size;\r\n//         string content;\r\n//         address sender;\r\n//         address receiver;\r\n//         ContainerState cState;\r\n//         uint256 containerId;\r\n//         bool multimodal;\r\n//         string[] IPFShash;\r\n//         address agent;\r\n//         address[] intermediateOfficer;\r\n//         address receiverAgent;\r\n//         address transporter;\r\n//     }\r\n\r\n//     mapping(uint256 => Container) public containers;\r\n//     mapping(address => uint256) public containerOwner;\r\n\r\n//     event ShipmentRequested(uint256 containerId, address agent);\r\n//     event RequiredDocumentsVerified(uint256 containerId, string message);\r\n//     event ContainerShipmentCreated(uint256 containerId);\r\n//     event BillofLadingIssued(uint256 containerId);\r\n//     event CustomsClearanceApproved(uint256 containerId, string message);\r\n//     event TransshipmentPermitIssued(uint256 containerId); \r\n//     event CarrierRequested(uint256 containerId, address carrier);\r\n//     event ApprovalRequested(uint256 containerId, address transporter);\r\n//     event RequestApproved(uint256 containerId);\r\n\r\n// // makeing of shipment like providing all details about the shipment\r\n//     function requestShipment(\r\n//         string memory _origin,\r\n//         string memory _destination,\r\n//         string memory _size,\r\n//         string memory _content,\r\n//         address _sender,\r\n//         address _receiver,\r\n//         address _receiverAgent,\r\n//         bool _multimodal\r\n//     ) external {\r\n//         require(_receiver != address(0), \"Receiver address cannot be zero.\");\r\n\r\n//         // Create a container struct\r\n//         uint256 _containerId = block.timestamp;\r\n//         Container memory container = containers[_containerId];\r\n//         container.origin = _origin;\r\n//         container.destination = _destination;\r\n//         container.size = _size;\r\n//         container.content = _content;\r\n//         container.sender = _sender;\r\n//         container.receiver = _receiver;\r\n//         container.receiverAgent = _receiverAgent;\r\n//         container.cState = ContainerState.ExportCustomsClearanceReq;\r\n//         container.containerId = _containerId;\r\n//         container.multimodal = _multimodal;\r\n\r\n//         // Set the agent\r\n//         container.agent = msg.sender;\r\n\r\n//         containerOwner[_sender] = _containerId;\r\n//         // Emit ShipmentRequested event\r\n//         emit ShipmentRequested(_containerId, msg.sender);\r\n//     }\r\n\r\n//     // function ReceiversInformations(address _sender) external view returns(address receiver, address receiverAgent){\r\n//     //     return (containerOwner[_sender].receiver, containerOwner[_sender].receiverAgent);\r\n//     // }\r\n\r\n//      function documentVerification(uint256 _containerId) external { \r\n//         require(msg.sender != address(0), \"Caller cannot be the zero address.\");\r\n//         Container memory container = containers[_containerId];\r\n\r\n//         if (msg.sender == container.agent) {\r\n//             require(container.cState == ContainerState.ExportCustomsClearanceReq, \"Container state is not Export Custom Clearance is approved.\");\r\n//             container.cState = ContainerState.ExportCustomsCDocumentsApprv;\r\n//             emit RequiredDocumentsVerified(_containerId,\"Document Verified\");\r\n//         }\r\n//         else if(msg.sender == container.receiverAgent){\r\n//             require(container.cState == ContainerState.ReadyForTransit || container.cState == ContainerState.InTransit);\r\n//             container.cState = ContainerState.ImportCustomsCDocumentsApprv;\r\n//             emit RequiredDocumentsVerified(_containerId,\"Document Verified\");\r\n//         }\r\n//      }\r\n    \r\n//     function createUnimodalShipment(uint256 _containerId) external {\r\n//         require(msg.sender != address(0), \"Caller cannot be the zero address.\");\r\n//         require(msg.sender == containers[_containerId].agent, \"Unauthorized access.\");\r\n//         require(containers[_containerId].cState == ContainerState.ExportCustomsCDocumentsApprv, \"Container state is not 'Ready'.\");\r\n\r\n//         containers[_containerId].cState = ContainerState.ShipmentCreated;\r\n\r\n//         emit ContainerShipmentCreated(_containerId);\r\n//     }\r\n\r\n\r\n//     function createMultimodalShipment(uint256 _containerId , address[] memory _intermediateOfficers\r\n//     ) external {\r\n//         require(msg.sender != address(0), \"Caller cannot be the zero address.\");\r\n//         require(msg.sender == containers[_containerId].agent, \"Unauthorized access.\");\r\n//         require(containers[_containerId].cState == ContainerState.ExportCustomsCDocumentsApprv, \"Container state is not 'Ready'.\");\r\n\r\n//         containers[_containerId].multimodal = true;\r\n//         containers[_containerId].intermediateOfficer = _intermediateOfficers;\r\n//         containers[_containerId].cState = ContainerState.ShipmentCreated;\r\n\r\n//         emit ContainerShipmentCreated(_containerId);\r\n//     }\r\n\r\n//     function issueBoL(uint256 _containerId, string memory hashIPFS) external {\r\n//         require(msg.sender == containers[_containerId].agent, \"Unauthorized access.\");\r\n//         require(containers[_containerId].cState == ContainerState.ShipmentCreated, \"Container state is not 'ShipmentCreated'.\");\r\n\r\n//         containers[_containerId].IPFShash.push(hashIPFS);\r\n//         containers[_containerId].cState = ContainerState.BoLIssued;\r\n\r\n//         emit BillofLadingIssued(_containerId);\r\n//     }\r\n    \r\n//     function customsClearance(uint256 _containerId) external {\r\n//         Container memory container = containers[_containerId];\r\n\r\n//         if (msg.sender == container.agent && container.cState == ContainerState.BoLIssued) { \r\n//             container.cState = ContainerState.TransshipmentPermitReq; \r\n//             emit CustomsClearanceApproved(_containerId, \"Custom clearance done on origin port.\");\r\n\r\n//         } else if(msg.sender == container.receiverAgent && container.cState == ContainerState.ImportCustomsCDocumentsApprv)\r\n//         { \r\n//             container.cState = ContainerState.Delivered; \r\n//             emit CustomsClearanceApproved(_containerId, \"Custom clearance done on receiver port.\");\r\n//         }else{\r\n//             bool checkOfficer = false;\r\n//             for(uint i = 0;i<container.intermediateOfficer.length; i++){\r\n//                 if(msg.sender == container.intermediateOfficer[i]){\r\n//                     checkOfficer = true;\r\n//                 }\r\n//             }\r\n\r\n//             if(checkOfficer){\r\n//                 container.cState = ContainerState.InTransit;\r\n//                 emit CustomsClearanceApproved(_containerId, \"Custom clearance done on intermediate port.\");\r\n//             }else{\r\n//                 revert(\"The Officer is fake and there is a chance of theft\");\r\n//             }\r\n//         }\r\n//     }\r\n\r\n//     function transshipmentPermit(uint256 _containerId) external { \r\n//         require(msg.sender == containers[_containerId].agent, \"Unauthorized access.\"); \r\n//         require(containers[_containerId].cState == ContainerState.TransshipmentPermitReq, \"Container transshipment documents approved.\");\r\n\r\n//         containers[_containerId].cState = ContainerState.CarrierRequested;\r\n\r\n//         emit TransshipmentPermitIssued(_containerId);\r\n//     }\r\n\r\n//     function CarrierRequest(address _agent,uint256 _containerId, address _transporter) external { \r\n//         require(msg.sender == _agent, \"Unauthorized access.\"); \r\n//         require(containers[_containerId].cState == ContainerState.CarrierRequested, \"Container state is not 'CarrierRequested'.\");\r\n\r\n//         containers[_containerId].transporter = _transporter; \r\n//         containers[_containerId].cState = ContainerState.ContainerHandedOff;\r\n\r\n//         emit CarrierRequested(_containerId, _transporter); \r\n//     }\r\n\r\n//     function requestApproval(uint256 _containerId, address _transporter) external { \r\n//         require(msg.sender == containers[_containerId].transporter, \"Unauthorized access.\");\r\n//         require(containers[_containerId].cState == ContainerState.ContainerHandedOff, \"Container state is not 'ContainerHandedOff'.\");\r\n\r\n//         containers[_containerId].cState = ContainerState.ReadyForTransit;\r\n\r\n//         emit ApprovalRequested(_containerId, _transporter); \r\n//     }\r\n// }",
  "sourcePath": "D:\\2020 Courses\\Semester 8\\chain\\backend\\contracts\\ContainerSC.sol",
  "compiler": {
    "name": "solc",
    "version": "0.8.18+commit.87f61d96.Emscripten.clang"
  },
  "schemaVersion": "3.4.16",
  "updatedAt": "2024-04-14T12:40:07.862Z",
  "networkType": "ethereum",
  "devdoc": {
    "kind": "dev",
    "methods": {},
    "version": 1
  },
  "userdoc": {
    "kind": "user",
    "methods": {},
    "version": 1
  }
}