{
  "contractName": "Roles",
  "abi": [
    {
      "anonymous": false,
      "inputs": [
        {
          "indexed": true,
          "internalType": "address",
          "name": "userAddress",
          "type": "address"
        },
        {
          "indexed": false,
          "internalType": "string",
          "name": "name",
          "type": "string"
        },
        {
          "indexed": false,
          "internalType": "string",
          "name": "role",
          "type": "string"
        }
      ],
      "name": "UserSignedUp",
      "type": "event"
    },
    {
      "inputs": [
        {
          "internalType": "address",
          "name": "",
          "type": "address"
        }
      ],
      "name": "users",
      "outputs": [
        {
          "internalType": "string",
          "name": "name",
          "type": "string"
        },
        {
          "internalType": "string",
          "name": "role",
          "type": "string"
        }
      ],
      "stateMutability": "view",
      "type": "function",
      "constant": true
    },
    {
      "inputs": [
        {
          "internalType": "string",
          "name": "_name",
          "type": "string"
        },
        {
          "internalType": "string",
          "name": "_role",
          "type": "string"
        }
      ],
      "name": "signUp",
      "outputs": [],
      "stateMutability": "nonpayable",
      "type": "function"
    },
    {
      "inputs": [],
      "name": "login",
      "outputs": [
        {
          "internalType": "string",
          "name": "",
          "type": "string"
        },
        {
          "internalType": "string",
          "name": "",
          "type": "string"
        }
      ],
      "stateMutability": "view",
      "type": "function",
      "constant": true
    }
  ],
  "bytecode": "0x608060405234801561001057600080fd5b50610c8a806100206000396000f3fe608060405234801561001057600080fd5b50600436106100415760003560e01c8063a469a33214610046578063a87430ba14610062578063b34e97e814610093575b600080fd5b610060600480360381019061005b91906106db565b6100b2565b005b61007c600480360381019061007791906107b1565b610218565b60405161008a92919061085d565b60405180910390f35b61009b61034c565b6040516100a992919061085d565b60405180910390f35b60008060003373ffffffffffffffffffffffffffffffffffffffff1673ffffffffffffffffffffffffffffffffffffffff1681526020019081526020016000206000018054610100906108c3565b905014610142576040517f08c379a000000000000000000000000000000000000000000000000000000000815260040161013990610940565b60405180910390fd5b6040518060400160405280838152602001828152506000803373ffffffffffffffffffffffffffffffffffffffff1673ffffffffffffffffffffffffffffffffffffffff16815260200190815260200160002060008201518160000190816101aa9190610b16565b5060208201518160010190816101c09190610b16565b509050503373ffffffffffffffffffffffffffffffffffffffff167f8074105224f8edd5999b4c4f0c13af7070912778b2520fd68c95678dd005f536838360405161020c92919061085d565b60405180910390a25050565b600060205280600052604060002060009150905080600001805461023b906108c3565b80601f0160208091040260200160405190810160405280929190818152602001828054610267906108c3565b80156102b45780601f10610289576101008083540402835291602001916102b4565b820191906000526020600020905b81548152906001019060200180831161029757829003601f168201915b5050505050908060010180546102c9906108c3565b80601f01602080910402602001604051908101604052809291908181526020018280546102f5906108c3565b80156103425780601f1061031757610100808354040283529160200191610342565b820191906000526020600020905b81548152906001019060200180831161032557829003601f168201915b5050505050905082565b60608060008060003373ffffffffffffffffffffffffffffffffffffffff1673ffffffffffffffffffffffffffffffffffffffff168152602001908152602001600020600001805461039d906108c3565b9050116103df576040517f08c379a00000000000000000000000000000000000000000000000000000000081526004016103d690610c34565b60405180910390fd5b6000803373ffffffffffffffffffffffffffffffffffffffff1673ffffffffffffffffffffffffffffffffffffffff1681526020019081526020016000206000016000803373ffffffffffffffffffffffffffffffffffffffff1673ffffffffffffffffffffffffffffffffffffffff16815260200190815260200160002060010181805461046d906108c3565b80601f0160208091040260200160405190810160405280929190818152602001828054610499906108c3565b80156104e65780601f106104bb576101008083540402835291602001916104e6565b820191906000526020600020905b8154815290600101906020018083116104c957829003601f168201915b505050505091508080546104f9906108c3565b80601f0160208091040260200160405190810160405280929190818152602001828054610525906108c3565b80156105725780601f1061054757610100808354040283529160200191610572565b820191906000526020600020905b81548152906001019060200180831161055557829003601f168201915b50505050509050915091509091565b6000604051905090565b600080fd5b600080fd5b600080fd5b600080fd5b6000601f19601f8301169050919050565b7f4e487b7100000000000000000000000000000000000000000000000000000000600052604160045260246000fd5b6105e88261059f565b810181811067ffffffffffffffff82111715610607576106066105b0565b5b80604052505050565b600061061a610581565b905061062682826105df565b919050565b600067ffffffffffffffff821115610646576106456105b0565b5b61064f8261059f565b9050602081019050919050565b82818337600083830152505050565b600061067e6106798461062b565b610610565b90508281526020810184848401111561069a5761069961059a565b5b6106a584828561065c565b509392505050565b600082601f8301126106c2576106c1610595565b5b81356106d284826020860161066b565b91505092915050565b600080604083850312156106f2576106f161058b565b5b600083013567ffffffffffffffff8111156107105761070f610590565b5b61071c858286016106ad565b925050602083013567ffffffffffffffff81111561073d5761073c610590565b5b610749858286016106ad565b9150509250929050565b600073ffffffffffffffffffffffffffffffffffffffff82169050919050565b600061077e82610753565b9050919050565b61078e81610773565b811461079957600080fd5b50565b6000813590506107ab81610785565b92915050565b6000602082840312156107c7576107c661058b565b5b60006107d58482850161079c565b91505092915050565b600081519050919050565b600082825260208201905092915050565b60005b838110156108185780820151818401526020810190506107fd565b60008484015250505050565b600061082f826107de565b61083981856107e9565b93506108498185602086016107fa565b6108528161059f565b840191505092915050565b600060408201905081810360008301526108778185610824565b9050818103602083015261088b8184610824565b90509392505050565b7f4e487b7100000000000000000000000000000000000000000000000000000000600052602260045260246000fd5b600060028204905060018216806108db57607f821691505b6020821081036108ee576108ed610894565b5b50919050565b7f5573657220616c72656164792065786973747300000000000000000000000000600082015250565b600061092a6013836107e9565b9150610935826108f4565b602082019050919050565b600060208201905081810360008301526109598161091d565b9050919050565b60008190508160005260206000209050919050565b60006020601f8301049050919050565b600082821b905092915050565b6000600883026109c27fffffffffffffffffffffffffffffffffffffffffffffffffffffffffffffffff82610985565b6109cc8683610985565b95508019841693508086168417925050509392505050565b6000819050919050565b6000819050919050565b6000610a13610a0e610a09846109e4565b6109ee565b6109e4565b9050919050565b6000819050919050565b610a2d836109f8565b610a41610a3982610a1a565b848454610992565b825550505050565b600090565b610a56610a49565b610a61818484610a24565b505050565b5b81811015610a8557610a7a600082610a4e565b600181019050610a67565b5050565b601f821115610aca57610a9b81610960565b610aa484610975565b81016020851015610ab3578190505b610ac7610abf85610975565b830182610a66565b50505b505050565b600082821c905092915050565b6000610aed60001984600802610acf565b1980831691505092915050565b6000610b068383610adc565b9150826002028217905092915050565b610b1f826107de565b67ffffffffffffffff811115610b3857610b376105b0565b5b610b4282546108c3565b610b4d828285610a89565b600060209050601f831160018114610b805760008415610b6e578287015190505b610b788582610afa565b865550610be0565b601f198416610b8e86610960565b60005b82811015610bb657848901518255600182019150602085019450602081019050610b91565b86831015610bd35784890151610bcf601f891682610adc565b8355505b6001600288020188555050505b505050505050565b7f55736572206e6f7420666f756e64000000000000000000000000000000000000600082015250565b6000610c1e600e836107e9565b9150610c2982610be8565b602082019050919050565b60006020820190508181036000830152610c4d81610c11565b905091905056fea2646970667358221220f978b517e68cbfee8be24a37032a65b95ae79ced697c50a3a2d64838b455fe0f64736f6c63430008120033",
  "immutableReferences": {},
  "source": "// SPDX-License-Identifier: MIT\r\npragma solidity ^0.8.0;\r\n\r\ncontract Roles {\r\n    struct User {\r\n        string name;\r\n        string role;\r\n    }\r\n\r\n    mapping(address => User) public users;\r\n\r\n    event UserSignedUp(address indexed userAddress, string name, string role);\r\n\r\n    function signUp(string memory _name, string memory _role) public {\r\n        require(bytes(users[msg.sender].name).length  == 0, \"User already exists\");\r\n        users[msg.sender] = User(_name, _role);\r\n        emit UserSignedUp(msg.sender, _name, _role);\r\n    }\r\n\r\n    function login() public view returns (string memory, string memory) {\r\n        require(bytes(users[msg.sender].name).length > 0, \"User not found\");\r\n        return (users[msg.sender].name, users[msg.sender].role);\r\n    }\r\n}",
  "sourcePath": "D:\\2020 Courses\\Semester 8\\chain\\backend\\contracts\\Roles.sol",
  "compiler": {
    "name": "solc",
    "version": "0.8.18+commit.87f61d96.Emscripten.clang"
  },
  "schemaVersion": "3.4.16",
  "updatedAt": "2024-05-02T13:48:13.989Z",
  "networkType": "ethereum",
  "devdoc": {
    "kind": "dev",
    "methods": {},
    "version": 1
  },
  "userdoc": {
    "kind": "user",
    "methods": {},
    "version": 1
  }
}